:020000040800F2
:1000000058100020513C0008B53C0008513C000845
:10001000BB3C0008BB3C0008BB3C000800000000E3
:10002000000000000000000000000000BB3C0008D1
:10003000BB3C0008BB3C0008BB3C0008C13C0008BE
:10004000BB3C0008BB3C0008BB3C0008BB3C0008B4
:10005000BB3C0008BB3C0008A5290008BB3C0008CD
:10006000BB3C0008BB3C0008BB3C0008BB3C000894
:10007000BB3C0008BB3C0008BB3C0008BB3C000884
:10008000BB3C0008BB3C0008BB3C0008BB3C000874
:10009000BB3C0008BB3C0008BB3C0008BB3C000864
:1000A000BB3C0008AD2E0008BB3C0008BB3C000870
:1000B000BB3C0008BB3C0008BB3C0008BB3C000844
:1000C000BB3C0008BB3C0008BB3C0008BB3C000834
:1000D000BB3C00088D3D0008BB3C0008BB3C000851
:1000E000BB3C0008BB3C0008BB3C0008BB3C000814
:1000F000BB3C0008BB3C0008BB3C0008BB3C000804
:10010000BB3C0008BB3C0008BB3C0008BB3C0008F3
:10011000BB3C0008BB3C0008BB3C0008BB3C0008E3
:10012000BB3C0008BB3C0008BB3C0008BB3C0008D3
:10013000BB3C0008BB3C0008BB3C0008BB3C0008C3
:10014000BB3C0008BB3C0008BB3C0008BB3C0008B3
:10015000BB3C0008BB3C0008BB3C0008BB3C0008A3
:10016000BB3C0008BB3C0008BB3C0008BB3C000893
:10017000BB3C0008BB3C0008BB3C0008BB3C000883
:10018000BB3C0008BB3C000880B483B000AF034612
:10019000FB71FB7903F01F03012202FA03F1054A08
:1001A00097F907305B0942F8231000BF0C37BD46B2
:1001B00080BC704700E100E080B483B000AF03462C
:1001C0003960FB7197F90730002B0BDA3B68DAB224
:1001D0000C49FB7903F00F03043B1201D2B20B442C
:1001E0001A7609E03B68DAB2074997F9073012013D
:1001F000D2B20B4483F8002300BF0C37BD4680BC4D
:10020000704700BF00ED00E000E100E080B582B083
:1002100000AF78607B68B3F1807F01D3012311E0E8
:100220007B6823F07F43094A013B53600F214FF065
:10023000FF30FFF7C1FF054B00229A60034B0722F6
:100240001A60002318460837BD4680BD10E000E064
:1002500080B483B000AF786000BF7B685A1E7A60BC
:10026000002BFAD100BF00BF0C37BD4680BC7047E1
:1002700080B500AF00224FF48051074804F043FDE1
:100280000A2003F035FD01224FF48051024804F0AA
:100290003AFD0123184680BD000C014080B582B0B4
:1002A00000AF0346FB710F4B32221A700D4B052233
:1002B0005A700C4BFF229A700A4B0122DA70094ADD
:1002C000FB7913714FF47A720521064800F092F918
:1002D0000346002B01D1002300E001231846083714
:1002E000BD4680BDF808002080B584B000AFB9607D
:1002F0007A601A460346FB731346BB810F4B4A22B2
:100300001A700E4B01225A700C4AFB7B9370BB890A
:100310001A460321094800F06DF90346002B01D16C
:10032000002307E0142003F0E3FC7968B86800F0CC
:1003300007F8034618461037BD4680BDF808002070
:1003400080B584B000AF786039600022132119486D
:1003500000F058FA174BDB79012B01D0002324E081
:10036000144B5B7ABB81BB891B02BB81114B9B7A0F
:100370009AB2BB891343BB810E4B1A7B3B681A7040
:100380000023FB730BE0FB7B03F10D02FB7B796821
:100390000B4408498A5C1A70FB7B0133FB73054BE5
:1003A0001B7BFA7B9A42EED3012318461037BD46D9
:1003B00080BD00BF3809002080B500AF124B142269
:1003C0001A70114B01225A700F4B14229A700E4B67
:1003D0000022DA704FF4FA7204210B4800F00AF997
:1003E0000346002B01D100230BE0FF22092107481F
:1003F00000F008FA054B9B79152B0CBF0123002355
:10040000DBB2184680BD00BFF80800203809002084
:1004100080B582B000AF0C4B04221A704FF4FA7210
:100420000121094800F0E6F80346002B01D1002322
:1004300005E0FF220D21054800F0E4F97B6818462D
:100440000837BD4680BD00BFF808002038090020ED
:1004500080B584B000AF344BBB6040F2D513BB8095
:100460004FF020333B60314B00221A702F4B00229B
:100470005A702E4B04229A702C4B5422DA702B4B5C
:1004800065221A71294B73225A71284B74229A7172
:100490004FF4FA720721254800F0ACF80346002B10
:1004A00001D100233CE0FF221021214800F0AAF9ED
:1004B0000023FB7331E0FB7B1D4AD25C3B799A42FF
:1004C00028D1FB7B01331A4AD25C7B799A4221D135
:1004D0000023BB730DE0FB7B1A1DBB7B1A44BB7B67
:1004E00013498A5C10333B4403F8102CBB7B013367
:1004F000BB73BB7B032BEED9394607F108030422FB
:10050000184606F0A5F90346002B01D0002307E0AA
:10051000012305E0FB7B0133FB73FB7B0F2BCAD967
:1005200018461037BD4680BD54657374F808002026
:100530003809002080B584B000AF2B4A3B4692E8D2
:100540000300186004331980284B02221A704FF4FC
:10055000FA720121254800F04DF80346002B01D125
:1005600000233CE0FF220D21214800F04BF93B46DF
:10057000062219461E4806F06BF90346002B01D0EF
:1005800000232CE00723FB60FB685A1CFA60184A22
:10059000D35CBB60BB681B02BB60FB685A1CFA6083
:1005A000134AD35C1A46BB681343BB60BB681B028B
:1005B000BB60FB685A1CFA600D4AD35C1A46BB68E4
:1005C0001343BB60BB681B02BB60FB685A1CFA602C
:1005D000074AD35C1A46BB681343BB60BB68184626
:1005E0001037BD4680BD00BFB4720008F808002077
:1005F0003809002080B582B000AF78600B46FB70F0
:1006000013463B80FB781946786800F01BF83B885E
:10061000184600F091FA0346002B01D100230DE0AB
:100620006420FFF715FE00F05FF90346002B01D1AF
:10063000002303E06420FFF70BFE01231846083770
:10064000BD4680BD2DE9F04389B000AF78600B4610
:10065000FB706B461E46FB7803F108014B1E3B61A5
:100660000A460023904699464FF000024FF00003DF
:100670004FEAC90343EA58734FEAC8020A46002307
:1006800014461D464FF000024FF00003EB0043EA12
:100690005473E2000B460733DB08DB00ADEB030DC0
:1006A0006B460033FB60FB68BB61FB780133FB707A
:1006B000BB6901221A70BB690133BB61BB690022AF
:1006C0001A70BB690133BB61BB6900221A70BB6938
:1006D0000133BB61BB69FF221A70BB690133BB6187
:1006E000FF23FB75BB69FA781A70BB690133BB61E4
:1006F000FB785B42DAB2BB691A70BB690133BB613C
:10070000BB69D4221A70BB690133BB61FB7D2C3BF2
:10071000FB750023FB7712E0FB7F7A6813441A789D
:10072000BB691A70BB690133BB61FB7F7A681344F4
:100730001A78FB7D1344FB75FB7F0133FB77FA7F4F
:10074000FB78013B9A42E7DBFB7DDB43DAB2BB6916
:100750001A70BB690133BB61BB6900221A70BB69A7
:100760000133BB61FB7808331946F86800F006F8DE
:10077000B54600BF2437BD46BDE8F08380B584B0E0
:1007800000AF7860396000BF02211C4805F0E1FF2E
:100790000346002BF8D000224FF48051184804F093
:1007A000B2FA022003F0A4FA0023FB6017E07A6893
:1007B000FB6813441B789BB21946104805F0E0FE15
:1007C0004FF4C870FFF744FD00BF02210B4805F04D
:1007D000C0FF0346002BF8D0FB680133FB60FA68CA
:1007E0003B689A42E3D301224FF48051044804F05D
:1007F0008AFA00BF1037BD4680BD00BF00380040F8
:10080000000C014080B584B000AF78600B46FB70EF
:1008100013463B8000224FF48051314804F073FAB4
:10082000022003F065FA00BF02212E4805F091FF77
:100830000346002BF8D003212A4805F0A1FE00BF93
:100840000221284805F085FF0346002BF8D000BFA1
:100850000121244805F07DFF0346002BF8D02148F4
:1008600005F09CFE0346BB730023FB7329E04FF4A5
:10087000C870FFF7EDFC3B8819461A4805F080FE6A
:100880004FF4C870FFF7E4FC00BF0221154805F0E3
:1008900060FF0346002BF8D000BF0121114805F08E
:1008A00058FF0346002BF8D00E4805F077FE0346AC
:1008B0001946FB7B7A681344CAB21A70FB7B01337A
:1008C000FB73FA7BFB789A42D1D301224FF480511B
:1008D000034804F018FA00BF1037BD4680BD00BFC2
:1008E000000C01400038004080B584B000AF3F4AA2
:1008F00007F1080392E8030018600433198000220E
:100900004FF480513A4804F0FEF9022003F0F0F968
:1009100000BF0221374805F01CFF0346002BF8D02A
:100920000321344805F02CFE00BF0221314805F0B8
:1009300010FF0346002BF8D000BF01212D4805F021
:1009400008FF0346002BF8D02A4805F027FE03468F
:10095000BB730023FB732FE06420FFF779FC00BF1B
:100960000221244805F0F5FE0346002BF8D00021B3
:10097000204805F005FE6420FFF76AFC00BF022155
:100980001C4805F0E6FE0346002BF8D000BF01210D
:10099000184805F0DEFE0346002BF8D0154805F098
:1009A000FDFD03461A46FB7BD2B210333B4403F8ED
:1009B000102CFB7B0133FB73FB7B052BCCD9012275
:1009C0004FF480510A4804F09EF907F108013B46B4
:1009D0000622184605F03CFF0346002B0CBF0123FE
:1009E0000023DBB218461037BD4680BDBC7200083C
:1009F000000C01400038004080B582B000AF00BF5D
:100A00000221494805F0A5FE0346002BF8D000BF9F
:100A10000121454805F09DFE0346002BF8D04248D1
:100A200005F0BCFD03461946404B1B781A46C9B277
:100A30003F4B99543D4B1B780133DAB23B4B1A7054
:100A400000224FF480513B4804F05DF9022003F08E
:100A50004FF90221344805F093FD00BF02213248CE
:100A600005F077FE0346002BF8D000BF01212E4889
:100A700005F06FFE0346002BF8D02B4805F08EFDE5
:100A800003461946294B1B781A46C9B2284B99547C
:100A9000264B1B780133DAB2244B1A704FF4C8701E
:100AA000FFF7D6FB00BF02211F4805F052FE0346A8
:100AB000002BF8D0FF211C4805F062FD4FF4C870F0
:100AC000FFF7C6FB00BF0221174805F042FE0346B0
:100AD000002BF8D000BF0121134805F03AFE034671
:100AE000002BF8D0104805F059FD0346FB71012298
:100AF0004FF480510F4804F006F90C4B1B7819464F
:100B00000B4AFB795354094B1B780133DAB2074B7C
:100B10001A70FB79012B0CBF01230023DBB21846AE
:100B20000837BD4680BD00BF00380040F4080020F3
:100B3000E0080020000C014080B584B000AF0346FF
:100B4000FB800023FB81052003F0D2F8FB890533ED
:100B5000FB810EE0FB88002B08D0FB890533FB816D
:100B6000FA89FB889A4201D9002308E0052003F0A6
:100B7000BFF8FFF741FF0346002BEBD001231846D7
:100B80001037BD4680BD80B586B000AF78600B469B
:100B9000FB70FB784FF4FA7219467868FFF72AFD6C
:100BA0000346002B01D1002328E0FF22082115482D
:100BB000FFF728FE134BDB78033BFB7400237B61BC
:100BC0000BE07B6903F108027B6979680B440D49EE
:100BD0008A5C1A707B6901337B61FB7C7A699A427B
:100BE000EFDBFB7CFB700623FB60064AFB681344CB
:100BF0001B78152B0CBF01230023DBB218461837D6
:100C0000BD4680BD3809002080B584B000AF786053
:100C10003960194B86221A704FF4FA720121164876
:100C2000FFF7E8FC0346002B01D100231FE0FF2261
:100C300040211248FFF7E6FD104BDB78033BFB72C7
:100C40000023FB600BE0FB6803F10802FB68796896
:100C50000B440A498A5C1A70FB680133FB60FB7A1B
:100C6000FA689A42EFDB3B68FA7A1A700123184659
:100C70001037BD4680BD00BFF808002038090020AD
:100C8000B0B58EB000AF164B8C221A70154B3C4697
:100C90001D460FCD0FC40FCD0FC40FCD0FC42B6851
:100CA00023603B46642234211846FFF7A3FC034629
:100CB000002B01D100230FE0FF2208210848FFF795
:100CC000A1FD06237B63064A7B6B13441B78152B1F
:100CD0000CBF01230023DBB218463837BD46B0BD38
:100CE000F8080020C472000880B586B000AFF86034
:100CF0007A601A460B46FB721346BB722F4B3A6A58
:100D00001068186092889A80FB7A1A46F9682C4815
:100D100005F0D2FD97F90B202A4B1A702A4B40227E
:100D20001A70294B01225A70BB7A002B01D0612224
:100D300000E06022244B9A707B68DAB2224BDA70B2
:100D4000224B1E4A1068186092889A800023FB7517
:100D50000AE0FB7D1A4AD256FB7D0A33D1B21A4A09
:100D6000D154FB7D0133FB75FB7D164A92F90020BF
:100D70009342EEDB134B93F90030DBB20A33DBB264
:100D8000642219461048FFF735FC0346002B01D1B9
:100D900000230EE00A2002F0ABFFFF220C210C48DA
:100DA000FFF730FD0A4BDB79002B01D0002300E078
:100DB000012318461837BD4680BD00BF80090020BA
:100DC000780900207F090020F8080020FC08002096
:100DD0003809002080B582B000AF03463960FB714E
:100DE000174B40221A70164B01225A70144B3022B6
:100DF0009A70134AFB79D370642204211048FFF7DC
:100E0000F9FB0346002B01D1002314E00A2002F075
:100E10006FFFFF221A210B48FFF7F4FC094BDB7927
:100E2000002B01D0002306E0074B1022194638683A
:100E300005F042FD012318460837BD4680BD00BFBE
:100E4000F8080020380900204009002080B582B051
:100E500000AF03463960FB71154B40221A70144BEA
:100E600001225A70124BA0229A70114AFB79D3705A
:100E7000104B10223968184605F01EFD642214211B
:100E80000B48FFF7B7FB0346002B01D100230BE013
:100E90000A2002F02DFF0A2002F02AFFFF221A2169
:100EA0000548FFF7AFFC012318460837BD4680BD53
:100EB000F8080020FC0800203809002080B58EB01A
:100EC00002AFF8607B600B46FB721346BB720023D7
:100ED00087F82F30204A07F1240392E803001860B6
:100EE00004331980002387F82E301C4A07F11003C1
:100EF0001268114619800233120C1A70F97A07F140
:100F00002403009301230022F868FFF7EDFE034657
:100F1000002B05D1012387F82D3097F82D3016E0EE
:100F2000BB7A79681846FFF755FF034687F82D30DE
:100F300097F82D30002B05D1022387F82D3097F834
:100F40002D3004E0002387F82D3097F82D30184617
:100F50003037BD4680BD00BFF8720008007300083E
:100F600080B500AF1249134805F00AFE1249114836
:100F700005F0E6FD11490F4805F0E2FD10490D4866
:100F800005F0DEFD0F490B4805F0DAFD0E49094872
:100F900005F0D6FD0949074805F0D2FD0B49054883
:100FA00005F0CEFD0A49034805F0CAFD00BF80BD2B
:100FB000B0020020900B0020840200207802002064
:100FC000C0020020880200208C020020D0020020F5
:100FD0009002002080B582B000AF0D490D4806F0A8
:100FE000B1F8786079680C4805F0CAFD0B490A48E9
:100FF00005F0A6FD0649002006F0A4F8786079689F
:10100000054805F09DFD00BF0837BD4680BD00BF07
:1010100004730008FC0A0020100C00207802002055
:1010200080B485B000AF78600B46FB700023FB6096
:10103000FB78042B20D17B681B78FB60FB681B02CC
:10104000FB607B6801331B781A46FB681343FB6027
:10105000FB681B02FB607B6802331B781A46FB6847
:101060001343FB60FB681B02FB607B6803331B7848
:101070001A46FB681343FB60FB6818461437BD46ED
:1010800080BC704780B58AB000AFB44B00221A72A2
:10109000002003F067F94FF4803003F0C1F801201D
:1010A00003F0ECFB4FF4E0114FF4803003F03CF917
:1010B000022003F067F90023FB61A94B5B68FB6129
:1010C000A74AFB6923F470635360A54AFB6943F4A4
:1010D000A0635360012003F045F9A24803F072FABF
:1010E000A04B5B68A04AA2FB03239B091846FFF7AD
:1010F0008DF89E4B00221A7001F010FB01F03AFCB3
:1011000001219B4803F099FD03461A46994B1A703A
:10111000984B1A78984B1A7001F052FD01F08EFC32
:1011200001F0F6FC01F0EEFF944B00221A70944B94
:1011300000221A7002F0F0FDB86102F0EDFD786156
:101140007B693B618F4805F0A3FD034619468D4836
:1011500001F0B6FC8C4805F09BFD034619468A4811
:1011600001F0AEFC894805F093FD03461946874817
:1011700001F0A6FCC8228649864801F090F8FFF7E6
:1011800077F803461A46844B1A70FFF715F90346A1
:101190001A46824B1A70FFF7CDF9F860FB68002BF6
:1011A00013D0774B1B7843F00103DAB2744B1A70FB
:1011B000F86802F005F9FF20FFF770F803461A46B9
:1011C000774B1A70774B00221A70774B01221A70F6
:1011D000764B00221A700C21754800F07FFE002328
:1011E000BB6000237B6202F097FDB860BB687B6246
:1011F00002E002F091FD78626B4B1B78002BF8D176
:101200007A6ABB68D31AB3F57A7FF2D8664B1B783B
:10121000002B06D15A4B1B7843F01003DAB2584B1F
:101220001A70574B1B78112B00F2738101A252F8F0
:1012300023F000BF7D120008C1120008131500083A
:1012400013150008131500081315000813150008DE
:1012500013150008131500081315000813150008CE
:1012600013150008131500081315000813150008BE
:1012700013150008ED130008451400084D4805F04B
:1012800007FD034619464C4801F01AFC4B4805F08F
:10129000FFFC03461946494801F012FC1C2148484E
:1012A00001F00EFC454805F0F3FC0346194643489F
:1012B00001F006FCC82242493F4800F0F0FF28E157
:1012C0003C4805F0E5FC034619463B4801F0F8FBB5
:1012D0003A4805F0DDFC03461946384801F0F0FBBA
:1012E000384805F0D5FC03461946364801F0E8FBBE
:1012F0000221354801F0E4FB0221344801F0E0FB13
:10130000334805F0C5FC03461946314801F0D8FBC7
:101310000321304801F0D4FB002319462E4801F088
:10132000CFFB03212D4801F0CBFB0221274801F020
:10133000C7FB0A212A4801F0C3FB0221294801F01A
:10134000BFFB0221214801F0BBFBFFF709FEC822C9
:101350002549194800F0A3FFDBE000BF4C0A00203C
:10136000001002408C090020D34D6210B50A002005
:10137000000C0140710B0020700B0020450B002079
:10138000E60C0020340100204001002080010020F4
:101390005C00002044000020460B0020470B00208A
:1013A000480B0020490B0020F90A0020FA0A00200F
:1013B0001000002098010020D8000020C401002067
:1013C000BC000020B0020020840200208002002027
:1013D000C0020020880200207C0200208C02002035
:1013E000D002002090020020900B0020714805F0F0
:1013F0004FFC034619466F4801F062FB6E4805F04A
:1014000047FC034619466C4801F05AFB6B4805F04F
:101410003FFC03461946694801F052FB1C2168480D
:1014200001F04EFB654805F033FC0346194663485E
:1014300001F046FBFFF7CEFDC8226149614800F08C
:101440002EFF66E05B4805F023FC03461946594829
:1014500001F036FB584805F01BFC03461946564878
:1014600001F02EFB554805F013FC0346194653487E
:1014700001F026FB544805F00BFC03461946524880
:1014800001F01EFB0221514801F01AFB02215048D5
:1014900001F016FB4F4805F0FBFB034619464D488B
:1014A00001F00EFB03214C4801F00AFB0023194612
:1014B0004A4801F005FB0321494801F001FB0221E4
:1014C000434801F0FDFA0A21464801F0F9FA0221E9
:1014D000454801F0F5FA02213D4801F0F1FAFFF725
:1014E00079FDFFF73DFDC8224049364800F0D7FEA0
:1014F000802000F007FE3E4800F0B4FEC02000F05F
:1015000001FE3C4800F0AEFE21213B4801F0D8FA34
:1015100000BF01F06DFC01F0A5FC384B1B78012BDE
:1015200010D100F05FFC0621354801F0C9FA2348CC
:1015300005F0AEFB03461946204801F0C1FA2F4BD7
:1015400000221A702F4B1B78002B40F00E831BE0FB
:101550002D4B1B685A1C2C490A60F9782B4AD15430
:10156000294B1B68294A0021D154274B1B687F2B2C
:101570000ADD274B80221946244805F013FA224B36
:101580001B68013B204A1360FB1C184602F0D0FB8D
:101590000346012BDCD01F491C4805F01FFD034604
:1015A000002B00F091801B49184805F0CBFD174B2C
:1015B0003B6234E098010020FC0A0020C4010020B6
:1015C000BC000020100C0020B0020020840200208B
:1015D00080020020C0020020880200207C0200203F
:1015E0008C020020D002002090020020900B0020EE
:1015F00050000020B00000205C010020760B00208D
:10160000DC020020770B0020280A0020A40900201B
:10161000A5090020047300083B6A01333B62BA4904
:10162000386A05F063FB0346002BF5D1B74805F097
:101630002FFB03461A460021B44805F02FFA1A2260
:10164000B349B24805F0FAFA396AB04805F078FAB9
:10165000B04805F01DFB03461946AE4801F030FACC
:101660000D21AA4801F02CFAAB4805F011FB034606
:101670001946A94801F024FA802000F043FDA7484C
:1016800000F0F0FDC02000F03DFDA44800F0EAFDB0
:1016900000224FF448719D4800F018FFA04805F063
:1016A000F7FA034601337B609E4B1A687B68D31AB6
:1016B0009C4A13607B689A4A99187B68C3F181033E
:1016C0001A46974805F06EF9974B1B78012B04D00A
:1016D000954B1B78112B40F05D82944B1B684CF2AC
:1016E0005032934240F0358240F2DC53904A9149A7
:1016F0000020FEF7F9FD03461A468F4B1A708E4BF9
:101700001B78002B00F01B828C4B1B78002B40F0C9
:1017100016828A4B01221A70854B1B78884AA2FBDD
:1017200003235B09DBB23033DAB2864B1A70804B8D
:101730001B78854AA2FB0323DB08DAB2824BA3FBAA
:101740000213D9080B469B000B445B00D31ADBB293
:101750003033DAB27B4B5A70754B1A787A4BA3FB55
:101760000213D9080B469B000B445B00D31ADBB273
:101770003033DAB2734B9A70744805F089FA034635
:101780001946724801F09CF9714805F081FA034648
:1017900019466F4801F094F96A4805F079FA034652
:1017A0001946684801F08CF95B4805F071FA034668
:1017B0001946594801F084F966495E4801F0B2FEC5
:1017C00003461A46644B1A70644805F061FA0346F2
:1017D0001946624801F074F95E4805F059FA03466B
:1017E00019465C4801F06CF94B4805F051FA034684
:1017F0001946494801F064F94D4B1B7819464D488C
:10180000FFF70EFC0346564A1360554B1B685B0AF4
:10181000544AA2FB0323DB09DBB23033DAB2524B6A
:101820001A704F4B1B68514AA2FB0323590E464BBB
:10183000A3FB0123DA0813469B0013445B00CA1A7A
:10184000D3B23033DAB2484B5A70454B1B68484A22
:10185000A2FB0323990D3C4BA3FB0123DA0813469B
:101860009B0013445B00CA1AD3B23033DAB23E4B4A
:101870009A703B4B1B683F4AA2FB0323990C324BE7
:10188000A3FB0123DA0813469B0013445B00CA1A2A
:10189000D3B23033DAB2344BDA70314B1B685B09A8
:1018A000354AA2FB0323D909274BA3FB0123DA08FE
:1018B00013469B0013445B00CA1AD3B23033DAB22A
:1018C000294B1A71264B1B682C4AA2FB0323590B88
:1018D0001D4BA3FB0123DA0813469B0013445B0056
:1018E000CA1AD3B23033DAB21F4B5A711C4B1B6881
:1018F000234AA2FB03239909134BA3FB0123DA0814
:1019000013469B0013443DE0087300082C0A002096
:101910002001002098010020C401002000010020C7
:10192000A4090020280A0020E60C0020640B0020F7
:101930005C0B00204C0B00204A0B0020490B0020C0
:101940001F85EB5154020020CDCCCCCC14020020DA
:1019500028020020280000204B0B0020400200201D
:10196000600B0020834B040058020020893BE655A1
:101970006BCA5F6B83DE1B43C55A7C0A5917B7D10C
:10198000D34D62105B00CA1AD3B23033DAB2B94B0E
:101990009A71B94B1B68B94AA2FB03235909B84B8A
:1019A000A3FB0123DA0813469B0013445B00CA1A09
:1019B000D3B23033DAB2AF4BDA71AF4B1B68B04AF7
:1019C000A2FB0323D908AE4BA3FB0123DA0813467D
:1019D0009B0013445B00CA1AD3B23033DAB2A54B72
:1019E0001A72A54B1968A64BA3FB0123DA0813460C
:1019F0009B0013445B00CA1AD3B23033DAB29D4B5A
:101A00005A72A04805F044F9034619469D4801F072
:101A100057F8984805F03CF903461946954801F0F7
:101A20004FF8994805F034F903461946964801F0F5
:101A300047F8802000F066FB944800F013FCC020BB
:101A400000F060FB914800F00DFC914805F020F992
:101A500003461A4600218E4805F020F81A228D49C7
:101A60008B4805F0EBF88349894805F069F80022B6
:101A70004FF44871864800F0BDFD874B1978874BBD
:101A800001228748FFF71AFA03461A46854B1A7057
:101A9000844B1B78022B28D0022B37DC002B02D082
:101AA000012B11D032E0804805F0F2F803461946C8
:101AB0007D4801F005F8744805F0EAF80346194638
:101AC000714800F0FDFF21E0784805F0E1F8034699
:101AD0001946764800F0F4FF6B4805F0D9F8034644
:101AE0001946694800F0ECFF10E0714805F0D0F8A5
:101AF000034619466E4800F0E3FF634805F0C8F856
:101B000003461946604800F0DBFF00BF694805F056
:101B1000BFF803461946674800F0D2FF664A102115
:101B20005E4801F0E3FD2F21634800F0C9FF5648ED
:101B300005F0AEF803461946534800F0C1FF5F4B6D
:101B40001B78002B02D15E4B00221A705D4B0022E5
:101B50001A605C4B1B6801335A4A136001224FF430
:101B600048714B4800F046FD14E0574B1B78002BA2
:101B700006D1C02000F0C6FA544800F073FB09E01B
:101B8000534B1B78403BDBB2184600F0BBFA514880
:101B900000F068FB504B1B78002B1AD04F4B1B7882
:101BA000012B16D14E4805F073F803461A46002162
:101BB0004B4804F073FF1A224A49494805F03EF8A1
:101BC00000224FF44871464800F080FC434B00224D
:101BD0001A7001224FF44871414800F077FC3E4BE7
:101BE0001B78092B7FF499AC01F010FD3E4805F0FD
:101BF0004FF8034619463C4800F062FF04213B4879
:101C000000F05EFF204805F043F8034619461E48E1
:101C100000F056FF204B1978344B0122204801F088
:101C200067FF03461A46324B1A70314B1B78042B60
:101C300000F2A68001A252F823F000BF511C000858
:101C4000F91C00081B1D00083D1D00085F1D000851
:101C5000284805F01DF803461946264800F030FFD5
:101C6000094805F015F803461946074800F028FF13
:101C700086E000BF58020020600B00201F85EB515A
:101C8000CDCCCCCC64020020C40100200001002097
:101C9000580A00202C0100205C0B0020E80C0020DA
:101CA0004C0B0020790B0020E40200201C030020D4
:101CB00084030020D0030020A00300204A0B002052
:101CC000490B0020640B0020690B00203C00002021
:101CD000540B002078020020770B0020780B0020A6
:101CE0002C0A00201401002040020020580B002084
:101CF0007A0B002000030020314804F0C9FF03469E
:101D000019462F4800F0DCFE2E4804F0C1FF0346C0
:101D100019462C4800F0D4FE32E02B4804F0B8FFFE
:101D200003461946284800F0CBFE264804F0B0FFD1
:101D300003461946234800F0C3FE21E0234804F07F
:101D4000A7FF03461946214800F0BAFE1D4804F0DB
:101D50009FFF034619461B4800F0B2FE10E01C48E6
:101D600004F096FF03461946194800F0A9FE1548ED
:101D700004F08EFF03461946124800F0A1FE00BF92
:101D8000144B00221A70144804F082FF03461A46CE
:101D90000021114804F082FE1A2210490E4804F076
:101DA0004DFF00224FF448710B4800F08FFBC0201C
:101DB00000F0A8F90A4800F055FAFFF7AEBB00BFE3
:101DC0001C030020C40100208403002040030020E5
:101DD0005C030020770B00202C0A0020500000201C
:101DE000B000002080B400AF364B1B88364AA2FBFF
:101DF00003235B0B9AB2354BA3FB0213D9080B46A6
:101E00009B000B445B00D31A9BB2DBB23033DAB2D7
:101E10002F4B1A702B4B1B882E4AA2FB03239B09C6
:101E20009AB22A4BA3FB0213D9080B469B000B4422
:101E30005B00D31A9BB2DBB23033DAB2244B5A7058
:101E4000204B1B88244AA2FB03235B099AB21F4B39
:101E5000A3FB0213D9080B469B000B445B00D31A6B
:101E60009BB2DBB23033DAB2194B9A70154B1B8838
:101E7000164AA2FB0323DB089AB2144BA3FB0213FE
:101E8000D9080B469B000B445B00D31A9BB2DBB214
:101E90003033DAB20E4BDA700A4B1A880B4BA3FBC5
:101EA0000213D9080B469B000B445B00D31A9BB26C
:101EB000DBB23033DAB2064B1A7100BFBD4680BCCC
:101EC000704700BF740B00205917B7D1CDCCCCCCD4
:101ED000DC020020D34D62101F85EB5180B584B029
:101EE00000AF786039600023FB6013E000BF0E4B49
:101EF0001B889BB203F08003802BF8D1FB687A68C3
:101F000013441B789BB21946074803F056FFFB6841
:101F10000133FB60FA683B689A42E7DB00BF00BF11
:101F20001037BD4680BD00BF0038014080B485B089
:101F300000AF786039601B4BFB600023FB727B684D
:101F4000194A9342A8BF13467B607B6823EAE37378
:101F50007B601EE07A68FB6892FBF3F3DAB2FB7AEF
:101F6000591CF97219463B680B443032D2B21A70D0
:101F70007B68FA6893FBF2F2F96801FB02F29B1AA4
:101F80007B60FB68094A82FB03129210DB17D31AAD
:101F9000FB60FB68002BDDD100BF00BF1437BD46DE
:101FA00080BC704740420F007F9698006766666667
:101FB00080B586B000AF0121082002F0D7FB0223D4
:101FC000BB751823FB754023BB8207F11403194628
:101FD0001A4802F063FD0121082002F0C7FB02232A
:101FE000BB751C23FB758023BB8207F114031946C4
:101FF000124802F053FD01214FF4001002F0D4FB0F
:102000004FF48063FB814FF480433B824CF25033AA
:102010007B604BF6FF737B8100233B810123BB81F7
:102020003B1D1946064802F0CBFF0121044803F08E
:10203000A7F800BF1837BD4680BD00BF000C0140A7
:102040000054004080B584B000AF78600B46FB7050
:102050001346BB704FF47A73FB600121786803F07C
:10206000ECF84FF47A73FB6006E0FB685A1EFA60E6
:10207000002B01D1FF233AE01F49786803F037FBBA
:102080000346002BF1D0FB7800221946786803F054
:10209000CFF94FF47A73FB6006E0FB685A1EFA60D2
:1020A000002B01D1FF2322E01449786803F01FFBC5
:1020B0000346002BF1D0BB781946786803F09CF9F1
:1020C0004FF47A73FB6006E0FB685A1EFA60002B3F
:1020D00001D1FF230BE00A49786803F008FB0346AF
:1020E000002BF1D00121786803F0C6F800231846D0
:1020F0001037BD4680BD00BF01000300800007000F
:102100008400070080B584B000AF0346FB71FB7903
:1021100023F00F03FB73FB791B01BB73FB7B23F0E5
:102120000703DBB21A464E211C48FFF78BFFFB7BEF
:1021300043F00203DBB223F00503DBB21A464E2163
:102140001648FFF77FFFFB7B23F00703DBB21A463D
:102150004E211248FFF776FFBB7B23F00703DBB26B
:102160001A464E210D48FFF76DFFBB7B43F002037B
:10217000DBB223F00503DBB21A464E210748FFF716
:1021800061FFBB7B23F00703DBB21A464E210348F5
:10219000FFF758FF00BF1037BD4680BD0054004018
:1021A00080B584B000AF0346FB71FB7923F00F03C9
:1021B000FB73FB791B01BB7397F90F3023F0070307
:1021C0005BB243F004035BB2DBB21A464E212448F3
:1021D000FFF738FFFB7B43F00603DBB223F001037C
:1021E000DBB21A464E211E48FFF72CFF97F90F303D
:1021F00023F007035BB243F004035BB2DBB21A4681
:102200004E211748FFF71EFF97F90E3023F0070302
:102210005BB243F004035BB2DBB21A464E211048B6
:10222000FFF710FFBB7B43F00603DBB223F0010393
:10223000DBB21A464E210A48FFF704FF97F90E3029
:1022400023F007035BB243F004035BB2DBB21A4630
:102250004E210348FFF7F6FE00BF1037BD4680BD94
:102260000054004090B585B000AF78600023FB7348
:1022700009E0FB7B7A6813441B781846FFF790FF50
:10228000FB7B0133FB73FC7B786804F001FD0346A4
:102290009C42EED300BF00BF1437BD4690BD80B551
:1022A0008AB000AFF860B9607A6001F035FD03468E
:1022B0007F4A13607F4B00221A70002387F8263074
:1022C0007D4B00221A707D4B00221A70002387F884
:1022D00027301CE0784804F0DBFC03461A46764BB6
:1022E000134477491A460B461B881380734804F041
:1022F000CFFC03461A46714B134471491A460B46EC
:102300001B88138097F82730013387F8273097F818
:102310002730062BDED9F968674804F011FCB9684C
:10232000664804F00DFC002387F827301CE0624863
:1023300004F0AEFC03461A465F4B134460491A464C
:102340000B461B8813805D4804F0A2FC03461A4626
:102350005A4B13445A491A460B461B88138097F868
:102360002730013387F8273097F82730062BDED93E
:10237000514804F08DFC0346DAB2524B1A704F48B4
:1023800004F086FC0346DAB24F4B1A707AE001F093
:10239000C3FC0246464B1B68D31A7A689A4271D234
:1023A00001F0BAFC0346424A1360424B1B780133EA
:1023B000DAB2404B1A7097F82620424B1B78013B4B
:1023C0009A4229DA002387F8273019E0394B1B7825
:1023D0001A4697F8273013443A4A127893FBF2F1E1
:1023E00001FB02F29A1A97F8273033498A5C2833A6
:1023F0003B4403F80C2C97F82730013387F827303B
:1024000097F82730072BE1D98020FFF77BFE07F1F3
:102410001C031846FFF726FF97F826202A4B1B7847
:10242000013B9A4229DA002387F8273019E0214B33
:102430001B781A4697F827301344234A127893FBE7
:10244000F2F101FB02F29A1A97F827301B498A5CD5
:1024500028333B4403F8182C97F82730013387F8CA
:10246000273097F82730072BE1D9C020FFF74AFE25
:1024700007F110031846FFF7F5FE97F826300133F1
:1024800087F8263097F826200E4B1B78013B9A429E
:10249000FFF67DAF97F826200B4B1B78013B9A4245
:1024A000FFF675AF00BF00BF2837BD4680BD00BF37
:1024B000F80C0020FC0C0020000D0020780D0020FE
:1024C0000C730008ED0D0020EE0D002080B588B0E3
:1024D00000AFF860B9601346FB71FB79002B3FD168
:1024E00001F01AFC03463E4A13603E4B00221A706C
:1024F0003D4B00221A700023FB770EE03A4804F0AF
:10250000C7FB03461A46384B134438491A460B4654
:102510001B881380FB7F0133FB77FB7F062BEDD9F4
:10252000F968314804F00CFB0023FB770EE02E48DD
:1025300004F0AEFB03461A462B4B13442B491A46B4
:102540000B461B881380FB7F0133FB77FB7F062B39
:10255000EDD9254804F09CFB0346DAB2244B1A70EF
:10256000FB681B78002B37D001F0D6FB02461C4BD2
:102570001B68D31ABA689A422ED201F0CDFB0346EB
:10258000174A1360174B1B780133DAB2154B1A70D8
:102590000023FB7715E0134B1B781A46FB7F13448F
:1025A000134A127893FBF2F101FB02F29A1AFB7FB5
:1025B0000D498A5C20333B4403F80C2CFB7F01332C
:1025C000FB77FB7F072BE6D98020FFF79BFD07F108
:1025D00014031846FFF746FE00BF2037BD4680BDF6
:1025E000F00D0020F40D0020F80D00200C73000801
:1025F000230E002080B588B000AFF860B9601346A4
:10260000FB71FB79002B3FD101F086FB03463E4A6C
:1026100013603E4B00221A703D4B00221A700023BB
:10262000FB770EE03A4804F033FB03461A46384B7A
:10263000134438491A460B461B881380FB7F01332D
:10264000FB77FB7F062BEDD9F968314804F078FA67
:102650000023FB770EE02E4804F01AFB03461A46CF
:102660002B4B13442B491A460B461B881380FB7FC8
:102670000133FB77FB7F062BEDD9254804F008FBDF
:102680000346DAB2244B1A70FB681B78002B37D054
:1026900001F042FB02461C4B1B68D31ABA689A42EF
:1026A0002ED201F039FB0346174A1360174B1B78F3
:1026B0000133DAB2154B1A700023FB7715E0134B88
:1026C0001B781A46FB7F1344134A127893FBF2F1EE
:1026D00001FB02F29A1AFB7F0D498A5C20333B44CE
:1026E00003F80C2CFB7F0133FB77FB7F072BE6D92C
:1026F000C020FFF707FD07F114031846FFF7B2FDEE
:1027000000BF2037BD4680BD240E0020280E0020CB
:102710002C0E00200C730008570E002080B582B0EC
:1027200000AFFFF745FC0023FB712DE0FB79204A49
:10273000D35C1B01DBB21A464E211E48FFF782FC18
:102740000A2001F0D5FAFB79194AD35C1B015BB270
:1027500043F002035BB2DBB21A464E211548FFF785
:1027600071FC0A2001F0C4FAFB79114AD35C1B0109
:10277000DBB21A464E210F48FFF764FC0A2001F035
:10278000B7FAFB790133FB71FB790B2BCED9802093
:10279000FFF7B8FC0848FFF765FDC020FFF7B2FC63
:1027A0000548FFF75FFD00BF0837BD4680BD00BF8D
:1027B00004000020005400401073000880B582B06F
:1027C00000AF0423FB71194B1B6819491846FFF72A
:1027D000ADFB184A184B1B889BB21380144B2E225A
:1027E0005A71134B1B78302B0CD1144B082219460D
:1027F0000F4804F0D7F8FB79013BFB71FB79002B04
:10280000EFD100E000BF0A4804F042FA0346DAB212
:102810006FF037039B1ADBB21846FFF773FC0448CE
:10282000FFF720FD00BF0837BD4680BD480A0020E5
:102830004C0A0020520A0020510A00204D0A0020B4
:1028400080B485B000AF78600023FB60344BFB6040
:102850007B689B79002B4FD0314B1A687B681B68D3
:10286000DB432F4913400B602D4B5A687B681B6874
:10287000DB432B4913404B607B681B791A46FB688E
:102880001344FB60FB6819687B681A68FB680A439D
:102890001A60234B9A687B681B68DB43204913400E
:1028A0008B601F4BDA687B681B68DB431C49134055
:1028B000CB607B685B79102B0ED1194B9A687B68D3
:1028C0001B68174913438B60154BDA687B681B68DC
:1028D00013491343CB601DE0114BFB607B685B79B0
:1028E0001A46FB681344FB60FB6819687B681A682A
:1028F000FB680A431A600DE07B681B791A46FB6887
:102900001344FB60FB6819687B681B68DA43FB684B
:102910000A401A6000BF1437BD4680BC704700BF34
:102920000004014080B485B000AF78600023FB73E1
:10293000084B5A697B681340002B02D00123FB73BC
:1029400001E00023FB73FB7B18461437BD4680BCB7
:10295000704700BF0004014080B483B000AF7860CE
:10296000034A7B68536100BF0C37BD4680BC70478B
:102970000004014080B582B000AF0121082001F0C1
:10298000F5FE0223BB714823FB710123BB803B1D75
:102990001946034802F082F800BF0837BD4680BDE3
:1029A000000C014080B500AF0120FFF7BBFF0346DC
:1029B000012B34D11B4B1B78022B17D11A4B002251
:1029C000DA701A4B08225A71174801F047FB184B6E
:1029D00000221A80134B01221A7000F043FA0122E0
:1029E0004FF48051134802F08EF915E00E4B00228F
:1029F000DA700E4B0C225A710B4801F02FFB0C4B76
:102A00001A880D4B1A80074B02221A7000224FF4CD
:102A10008051084802F077F90120FFF79DFF00BFC1
:102A200080BD00BF710B0020880B0020800B0020B0
:102A30006E0B002000080140720B002080B586B0AC
:102A400000AF01214FF4003001F0AEFE0223BB7550
:102A50001823FB750423BB8207F11403194616489B
:102A600002F01CF84823FB750823BB8207F114030E
:102A70001946114802F012F801214FF4003001F01C
:102A800075FE4FF416537B6000233B820C23FB81C1
:102A90000023BB8100237B8100233B813B1D194622
:102AA000064802F05BFF0121044803F06DF800BF07
:102AB0001837BD4680BD00BF0008014000440040FB
:102AC00080B584B000AF786039600023FB6013E00C
:102AD00000BF80210D4803F0B1FA0346002BF8D067
:102AE000FB687A6813441B789BB21946074803F0C9
:102AF00064F9FB680133FB60FA683B689A42E7DBE4
:102B000000BF00BF1037BD4680BD00BF004400407D
:102B100080B586B000AF0121042001F027FE02231A
:102B2000BB751823FB754FF40073BB8207F11403C8
:102B30001946214801F0B2FF4823FB754FF480632A
:102B4000BB8207F1140319461B4801F0A7FF0121BE
:102B50004FF4804001F00AFE4FF416537B600023CF
:102B60003B820C23FB810023BB8100237B8100235C
:102B70003B813B1D1946114802F0F0FE01210F4830
:102B800003F002F84FF4E06001F056FA25233B70A1
:102B90000123FB7000237B700023BB703B4618466B
:102BA00001F05CFA012240F22551044803F00BF8D1
:102BB00000BF1837BD4680BD000801400038014005
:102BC00080B582B000AF0121042001F0CFFD0223C7
:102BD000BB711023FB714FF48053BB803B1D194622
:102BE000064801F05BFF00224FF48051034802F0D9
:102BF0008AF800BF0837BD4680BD00BF000801400D
:102C000080B483B000AF78600B46FB70FB78002B7C
:102C100008D07B681B889BB243F001039AB27B68A3
:102C20001A8007E07B681B889BB223F001039AB2ED
:102C30007B681A8000BF0C37BD4680BC704780B4EB
:102C400085B000AF786039600023FB817B681B880A
:102C5000FB817B682E4A934213D07B682D4A9342B6
:102C60000FD07B68B3F1804F0BD07B682A4A934228
:102C700007D07B68294A934203D07B68284A934255
:102C800008D1FB8923F07003FB813B685A88FB89DC
:102C90001343FB817B68234A93420CD07B68224A12
:102CA000934208D0FB8923F44073FB813B68DA88A8
:102CB000FB891343FB817B68FA891A803B689A88F9
:102CC0007B689A853B681A887B681A857B68104AFE
:102CD00093420FD07B680F4A93420BD07B68134A14
:102CE000934207D07B68124A934203D07B68114A13
:102CF000934204D13B681B7A9AB27B681A867B6840
:102D000001229A8200BF1437BD4680BC704700BFC5
:102D1000002C014000340140000400400008004045
:102D2000000C004000100040001400400040014032
:102D3000004401400048014080B483B000AF786097
:102D40000B467B8013467B707B78002B08D07B681A
:102D50009B899AB27B8813439AB27B689A8109E077
:102D60007B689B899AB27B88DB439BB213409AB203
:102D70007B689A8100BF0C37BD4680BC704780B429
:102D800085B000AF78600B467B800023FB73002387
:102D9000BB8100237B817B681B8A9AB27B881340AE
:102DA000BB817B689B899AB27B8813407B81BB89FE
:102DB000002B05D07B89002B02D00123FB7301E09F
:102DC0000023FB73FB7B18461437BD4680BC70475D
:102DD00080B483B000AF78600B467B807B88DB4398
:102DE0009AB27B681A8200BF0C37BD4680BC704720
:102DF00080B584B000AF01214FF4006001F0B6FC53
:102E000041F61F43BB800023FB804FF4FA733B81E4
:102E100000237B8100233B733B1D19460F48FFF7BE
:102E20000EFF0F4B19221A700D4B00225A700C4BDB
:102E300001229A700A4B0022DA70094801F00EF95B
:102E4000002201210548FFF777FF00210348FFF723
:102E5000D7FE00BF1037BD4680BD00BF002C01402B
:102E60007C0B002080B500AF012201210548FFF74F
:102E700063FF01210348FFF7C3FE1920FDF784F922
:102E800000BF80BD002C014080B500AF00220121B1
:102E90000548FFF751FF00210348FFF7B1FE192055
:102EA000FDF772F900BF80BD002C014080B500AF76
:102EB00001218748FFF763FF0346002B00F00581DF
:102EC0000121844801F0B9FE0346002B2DD1824B2D
:102ED0001B78012B06D1814B00221A70804B0022F7
:102EE0001A80EAE07E4B1B8801339AB27C4B1A8031
:102EF0007B4B1B883C2B40F0E0807A4B1B78002BEF
:102F000040F0DB80774B01221A70774B01221A7058
:102F1000764B00221A70764B00221A70754B0022F5
:102F20001A70754B00221A80C7E06B4B1B78002B80
:102F300031D16A4B01221A70694B00221A806F4B03
:102F400000221A80674B1B78013B072B00F2B580EB
:102F5000664B1B780133DAB2644B1A70634B1B78F3
:102F60000F2B02D9614B00221A70604B1B78092B82
:102F700008D85E4B1B785E4A12783033D9B2604B6A
:102F800099549AE0594B1B78594A12783733D9B281
:102F90005B4B995491E0594B1B8801339AB2574BC4
:102FA0001A80564B1B88B3F5167F05D14D4B002276
:102FB0001A70524B00221A804F4B1B8801339AB271
:102FC0004D4B1A804C4B1B880A2B08D14A4B0022D0
:102FD0001A80484B1B78DB43DAB2464B1A70404BE1
:102FE0001B8801339AB23E4B1A803D4B1B88642BE1
:102FF00062D13C4B1B78013B072B5ED801A252F8F3
:1030000023F000BF25300008393000084D3000089B
:103010006130000875300008893000089D300008D4
:10302000B13000082F4B02221A70304B00221A7068
:103030002F4B01221A7040E02A4B03221A702B4BAF
:1030400000221A702A4B02221A7036E0254B042205
:103050001A70264B00221A70254B03221A702CE09E
:10306000204B05221A70214B00221A70204B04229B
:103070001A7022E01B4B06221A701C4B00221A7099
:103080001B4B05221A7018E0164B07221A70174BBB
:1030900000221A70164B06221A700EE0114B0822FD
:1030A0001A70124B00221A70114B07221A7004E09A
:1030B0000C4B09221A7000E000BF084B1A78064B2F
:1030C0001A7001210248FFF783FE00BF80BD00BFD8
:1030D000002C0140000C0140700B0020710B0020FF
:1030E0006E0B0020770B0020780B0020530B002084
:1030F000540B0020690B00206C0B00206A0B002091
:103100003C00002080B586B000AF0121082001F00E
:103110002DFB01214FF4804001F046FB0323BB75DA
:103120001823FB754FF42043BB8207F114031946A3
:10313000244801F0B3FC0323BB751023FB754FF447
:103140008053BB8207F1140319461E4801F0A6FC08
:103150004823FB754FF48043BB8207F114031946E3
:10316000184801F09BFC00233B804FF482737B8066
:103170000023BB800023FB8000233B8100237B8155
:103180003823BB818023FB8107233B823B461946C2
:103190000D4803F02FF800210B4803F077FA0122C5
:1031A0004FF48051074801F0AEFD0121064803F0BD
:1031B00022FA0121044803F052F900BF1837BD4636
:1031C00080BD00BF000C01400038004080B582B0D7
:1031D00000AF78607B68002B04D11C216848FFF7A2
:1031E0006FFCC9E07B681B0EDAB2664B1A707B6815
:1031F0001B0CDAB2644B1A707B681B0ADAB2634BA1
:103200001A707B68DAB2624B1A705E4B1B781B092E
:10321000DBB23033DAB25F4B1A705A4B1B7803F0D3
:103220000F03DBB23033DAB25A4B5A70564B1B786D
:10323000594AA2FB03235B09DBB23033DAB2574BA6
:103240001A70514B1B78564AA2FB0323DB08DAB2F3
:10325000534BA3FB0213D9080B469B000B445B00A6
:10326000D31ADBB23033DAB24C4B5A70464B1A7871
:103270004B4BA3FB0213D9080B469B000B445B008E
:10328000D31ADBB23033DAB2444B9A703F4B1B781F
:10329000414AA2FB03235B09DBB23033DAB2414B74
:1032A0001A703A4B1B783E4AA2FB0323DB08DAB2C2
:1032B0003B4BA3FB0213D9080B469B000B445B005E
:1032C000D31ADBB23033DAB2364B5A702F4B1A783E
:1032D000334BA3FB0213D9080B469B000B445B0046
:1032E000D31ADBB23033DAB22E4B9A70284B1B78EC
:1032F0001B09DBB23033DAB22B4B1A70244B1B782C
:1033000003F00F03DBB23033DAB2274B5A70274891
:1033100003F0BEFC034619462448FFF7D1FB022107
:103320001C48FFF7CDFB02212148FFF7C9FB2148CC
:1033300003F0AEFC034619461E48FFF7C1FB03210C
:103340001648FFF7BDFB002319461B48FFF7B8FBE3
:1033500003211448FFF7B4FB02211548FFF7B0FB27
:103360000A211648FFF7ACFB02210F48FFF7A8FB24
:1033700002210F48FFF7A4FB00BF0837BD4680BD00
:10338000940200208C0B00208D0B00208E0B00205F
:103390008F0B0020840200201F85EB518802002043
:1033A000CDCCCCCC8C02002090020020B0020020BA
:1033B00080020020C00200207C020020D0020020F9
:1033C00080B483B000AF78607B681B0EDAB24B4BE1
:1033D0001A707B681B0CDAB2494B1A707B681B0AA7
:1033E000DAB2484B1A707B68DAB2474B1A70434B1B
:1033F0001B781B09DBB23033DAB2444B1A703F4BF7
:103400001B7803F00F03DBB23033DAB23F4B5A7054
:103410003B4B1B783E4AA2FB03235B09DBB23033F4
:10342000DAB23C4B1A70364B1B783B4AA2FB0323A3
:10343000DB08DAB2384BA3FB0213D9080B469B001A
:103440000B445B00D31ADBB23033DAB2314B5A7023
:103450002B4B1A78304BA3FB0213D9080B469B0069
:103460000B445B00D31ADBB23033DAB2294B9A70CB
:10347000244B1B78264AA2FB03235B09DBB23033C3
:10348000DAB2264B1A701F4B1B78234AA2FB032388
:10349000DB08DAB2204BA3FB0213D9080B469B00D2
:1034A0000B445B00D31ADBB23033DAB21B4B5A70D9
:1034B000144B1A78184BA3FB0213D9080B469B0038
:1034C0000B445B00D31ADBB23033DAB2134B9A7081
:1034D0000D4B1B781B09DBB23033DAB2104B1A707C
:1034E000094B1B7803F00F03DBB23033DAB20C4B1D
:1034F0005A7000BF0C37BD4680BC70478C0B002053
:103500008D0B00208E0B00208F0B002084020020EA
:103510001F85EB5188020020CDCCCCCC8C02002042
:103520009002002080B485B000AF7860396000233D
:10353000FB730023BB7300237B7300233B730023C7
:10354000BB735AE0BB7B7A6813441B781B097B73FF
:103550007B7B092B03D87B7B30337B7308E07B7B41
:10356000092B05D97B7B0F2B02D87B7B37337B73F1
:10357000BB7B7A6813441B7803F00F033B733B7BE0
:10358000092B03D83B7B30333B7308E03B7B092B93
:1035900005D93B7B0F2B02D83B7B37333B73FB7B3F
:1035A0003A68134430221A70FB7B0133FB73FB7BB8
:1035B0003A68134478221A70FB7B0133FB73FB7B60
:1035C0003A6813447A7B1A70FB7B0133FB73FB7BF5
:1035D0003A6813443A7B1A70FB7B0133FB73FB7B25
:1035E000112B07D8FB7B3A68134420221A70FB7B0F
:1035F0000133FB73BB7B0133BB73BB7B032BA1D9B3
:10360000012318461437BD4680BC704780B483B090
:1036100000AF0023FB710023BB7100237B710023EB
:103620007B7155E0FB792F4AD35C2F2B0AD9FB79AC
:103630002C4AD35C392B05D8FB792A4AD35C303B22
:10364000BB710EE0FB79274AD35C402B09D9FB798B
:10365000244AD35C462B04D8FB79224AD35C373BFF
:10366000BB717B79BA791201D1B21F4AD154FB796F
:103670000133FB71FB791B4AD35C2F2B0AD9FB79F1
:10368000184AD35C392B05D8FB79164AD35C303BFA
:10369000BB710EE0FB79134AD35C402B09D9FB794F
:1036A000104AD35C462B04D8FB790E4AD35C373BD7
:1036B000BB717B790C4AD15C7B79BA790A43D1B270
:1036C000094AD154FB790133FB717B7901337B715A
:1036D0007B79032BA6D900BF00BF0C37BD4680BC49
:1036E000704700BF3C000020580B002080B487B01A
:1036F00000AFF8600B467A60FB720023FB75002375
:10370000BB7500237B7500233B750023BB7547E029
:10371000BB7DFA6813441B781B097B757B7D092BE5
:1037200003D87B7D30337B7508E07B7D092B05D981
:103730007B7D0F2B02D87B7D37337B75BB7DFA6891
:1037400013441B7803F00F033B753B7D092B03D813
:103750003B7D30333B7508E03B7D092B05D93B7D34
:103760000F2B02D83B7D37333B75FB7D7A681344C2
:103770007A7D1A70FB7D0133FB75FB7D7A681344FB
:103780003A7D1A70FB7D0133FB75FB7D7A6813442B
:1037900020221A70FB7D0133FB75BB7D0133BB75A5
:1037A000BA7DFB7A9A42B3D3012318461C37BD4633
:1037B00080BC704780B58AB002AFAE4A07F11403EF
:1037C00092E803001860043319800023BB77AA4AEB
:1037D0003B461268114619800233120C1A700023FE
:1037E000FB7710237B770023FB7774E1A34B1978D9
:1037F000FB7F1F2B05D8FB7F01339B00013B1A4643
:1038000004E0FB7F173B1B01013B1A4607F1140341
:10381000009301239A48FDF767FA03463B773B7F05
:10382000002B10D1974803F033FA03461946954808
:10383000FFF746F9944803F02BFA034619469248DD
:10384000FFF73EF94CE1FB7F102B2CD13B1D1022E2
:103850000021184603F022F9FB7F1F2B03D8FB7FC2
:103860009B00DBB206E0FB7F173BDBB21B01DBB248
:10387000043BDBB23A1D11461846FDF7E7FA034652
:10388000002B10D1814803F003FA034619467F4804
:10389000FFF716F97C4803F0FBF9034619467A480E
:1038A000FFF70EF91CE1FB7F002B02D0FB7F102BF2
:1038B00030D13B1D10220021184603F0EFF8FB7FAA
:1038C0001F2B07D8FB7F0133DBB29B00DBB2033B2E
:1038D000DBB206E0FB7F173BDBB21B01DBB2033B35
:1038E000DBB23A1D11461846FDF7B0FA0346002B2D
:1038F00068D1664803F0CCF9034619466348FFF7E0
:10390000DFF8614803F0C4F9034619465E48FFF743
:10391000D7F8E5E03B1D10220021184603F0BEF861
:10392000FB7F1F2B03D8FB7F9B00DBB206E0FB7FF6
:10393000173BDBB21B01DBB2043BDBB23A1D114685
:103940001846FDF783FA0346002B10D14F4803F0C9
:103950009FF9034619464D48FFF7B2F84A4803F06D
:1039600097F9034619464848FFF7AAF8B8E0FB7FE5
:103970001F2B07D8FB7F0133DBB29B00DBB2033B7D
:10398000DBB206E0FB7F173BDBB21B01DBB2033B84
:10399000DBB23A1D11461846FDF758FA0346002BD4
:1039A00010D13A4803F074F9034619463748FFF737
:1039B00087F8354803F06CF9034619463248FFF79B
:1039C0007FF88DE03B1D10220021184603F066F8B9
:1039D000FB7F1F2B07D8FB7F0133DBB29B00DBB2E1
:1039E000023BDBB206E0FB7F173BDBB21B01DBB225
:1039F000023BDBB23A1D11461846FDF727FA034693
:103A0000002B10D1214803F043F9034619461F4803
:103A1000FFF756F81C4803F03BF9034619461A48CD
:103A2000FFF74EF85CE03B1D07F1140292E803003B
:103A30001860043319803B1D06331A463B4619882B
:103A40009B781180937069237B733B1D0A331A4660
:103A500007F11403186810609B889380FB7F1F2B6D
:103A600016D8FB7F0133DBB29B00DBB2013BDBB23C
:103A700015E000BFF8720008007300085C0B00201E
:103A80004C0B002024040020C40100204804002026
:103A9000FB7F173BDBB21B01DBB2013BDBB23A1D04
:103AA00011461846FDF7D2F90346002B10D10E48F7
:103AB00003F0EEF8034619460B48FFF701F80B48F0
:103AC00003F0E6F8034619460848FEF7F9FF07E059
:103AD000FB7F0133FB77FA7F7B7F9A42FFF486AE50
:103AE0002037BD4680BD00BF64040020C401002013
:103AF00080B592B002AFF8607B600B46FB72134654
:103B0000BB72514A07F1340392E803001860043392
:103B10001980002387F83E304C4A07F120031268D1
:103B2000114619800233120C1A70102387F83D30A9
:103B3000002387F83F30F97A07F13403009301231B
:103B40000022F868FDF7D0F80346002B05D10123C9
:103B500087F83C3097F83C3072E007F110031946C3
:103B60000120FDF737F9034687F83C3007F11003D1
:103B700019460120FDF72EF90346002B05D102233B
:103B800087F83C3097F83C305AE0002387F83F3004
:103B90000FE097F83F307A681A4497F83F30127870
:103BA00040333B4403F8302C97F83F30013387F81B
:103BB0003F3097F83F30032BEBD907F1100319463C
:103BC0000120FDF743F90346002B05D1032387F8B5
:103BD0003C3097F83C3033E007F1240307F134021E
:103BE00092E8030018600433198007F124030633B8
:103BF0001A4607F1200319889B7811809370692376
:103C000087F82D3007F124030A331A4607F13403ED
:103C1000186810609B88938007F1240319460320DD
:103C2000FDF714F90346002B05D1042387F83C3037
:103C300097F83C3004E0002387F83C3097F83C309C
:103C400018464037BD4680BDF87200080073000872
:103C5000B0B500AF104B03F50073104A1360DFF8E6
:103C6000CCD00F4D0F4C05E02A46151D23461C1DD8
:103C700012681A600C4B9C42F6D30C4C03E02346AE
:103C80001C1D00221A600A4B9C42F8D300F0D6F8A3
:103C9000FDF7F8F900BFB0BD580E00205810002005
:103CA0002873000800000020E0080020E008002041
:103CB000A810002080B400AFFEE780B400AFFEE79C
:103CC00080B400AF084B1B68002B04D0064B1B6868
:103CD000013B054A1360054B1B680133034A13601F
:103CE00000BFBD4680BC7047880900205C100020E2
:103CF00080B483B000AF7860064A7B68136000BF71
:103D0000044B1B68002BFBD100BF00BF0C37BD4626
:103D100080BC70478809002080B400AF024B1B684C
:103D20001846BD4680BC70475C100020581000202B
:103D300080B485B000AF78600023FB73104B1A6825
:103D4000104B1B689A4215D00D4B1B685A1C0C492E
:103D50000A600D4AD25C7B681A70094B1B685A4294
:103D600003F03F0302F03F0258BF5342044A13607E
:103D70000123FB73FB7B18461437BD4680BC70479C
:103D8000A0100020A41000206010002080B500AF1B
:103D90002021244802F052F90346012B3FD1224B47
:103DA0001B78002B1ED040F225511E4802F0CBF9A3
:103DB0001C4802F013F8034618461C4B1B785A1C8B
:103DC000D1B21A4A11701A46C1B2194B9954174B05
:103DD0001B78472B23D9144B00221A70134B002257
:103DE0001A701CE040F225510E4802F0ACF90D4863
:103DF00001F0F4FF034618460E4B1B685A1C0D4990
:103E00000A60C1B20C4AD1540A4B1B685A4203F0F3
:103E10003F0302F03F0258BF5342064A136000BFFF
:103E200080BD00BF00380140F90A0020FA0A0020D6
:103E3000FC0A0020A41000206010002080B500AF14
:103E400000F074F800BF80BD80B485B000AF0023DF
:103E5000FB600023BB6000237B602F4B5B6803F09B
:103E60000C03FB60FB68082B11D0FB68082B3AD8C9
:103E7000FB68002B03D0FB68042B04D033E0274BF6
:103E8000274A1A6033E0254B254A1A602FE0224B5F
:103E90005B6803F47013BB601F4B5B6803F48033F3
:103EA0007B60BB689B0C0233BB607B68002B06D138
:103EB000BB681C4A02FB03F3184A136017E0164B59
:103EC0005B6803F40033002B06D0BB68154A02FB85
:103ED00003F3124A13600AE0BB68114A02FB03F3C2
:103EE0000E4A136003E00D4B0D4A1A6000BF0A4BE7
:103EF0005B681B0903F00F030B4AD35CDBB2FB606A
:103F0000064B1A68FB6822FA03F3044A136000BFE9
:103F10001437BD4680BC7047001002408C0400205E
:103F200000127A0000093D009004002080B500AF27
:103F300000F002F800BF80BD80B483B000AF002362
:103F40007B6000233B603A4B1B68394A43F4803363
:103F50001360374B1B6803F400333B607B6801330D
:103F60007B603B68002B03D17B68B3F5A06FF0D179
:103F70002F4B1B6803F40033002B02D001233B605E
:103F800001E000233B603B68012B4BD1294B1B68B0
:103F9000284A43F010031360264B1B68254A23F080
:103FA00003031360234B1B68224A43F00203136090
:103FB0001F4B1F4A5B6853601D4B1D4A5B68536073
:103FC0001B4B5B681A4A43F480635360184B5B6871
:103FD000174A23F47C135360154B5B68144A43F46F
:103FE000E8135360124B1B68114A43F0807313604F
:103FF00000BF0F4B1B6803F00073002BF9D00C4B74
:104000005B680B4A23F003035360094B5B68084A63
:1040100043F00203536000BF054B5B6803F00C03E1
:10402000082BF9D100BF0C37BD4680BC704700BFDC
:10403000001002400020024080B483B000AF7860DE
:10404000054A7B6843F0BF6343F40033D36000BF8D
:104050000C37BD4680BC704700ED00E080B487B0EF
:1040600000AF786000237B6100233B610F23FB607E
:104070007B68DB78002B3AD0274BDB68DB431B0ADD
:1040800003F007037B617B69C3F104033B61FA68BA
:104090007B6922FA03F3FB607B685B781A463B6915
:1040A00002FA03F37B617B689B781A46FB68134036
:1040B0007A6913437B617B691B017B61174A7B68CB
:1040C0001B787969C9B213440A4683F800237B68D8
:1040D0001B7803F01F0311497A6812785209D2B293
:1040E0001046012202FA03F341F820300FE07B680A
:1040F0001B7803F01F0309497A6812785209D2B27B
:10410000104601229A4000F1200341F8232000BF0D
:104110001C37BD4680BC704700ED00E000E100E0C8
:1041200080B483B000AF786039603B6823F06043AF
:1041300023F07F0304497A6813438B6000BF0C3778
:10414000BD4680BC704700BF00ED00E080B483B086
:1041500000AF03460A46FB711346BB71BB79002BC7
:1041600006D0094B1A69FB79074913430B6106E036
:10417000054B1A69FB79DB43034913400B6100BF10
:104180000C37BD4680BC704700ED00E080B483B0C2
:1041900000AF78607B68042B06D1094B1B68084A86
:1041A00043F00403136005E0054B1B68044A23F049
:1041B0000403136000BF0C37BD4680BC704700BFCE
:1041C00010E000E080B400AF134B1B68124A43F0CC
:1041D00001031360104B5A680F49104B13404B609A
:1041E0000D4B1B680C4A23F0847323F48033136057
:1041F000094B1B68084A23F480231360064B5B6855
:10420000054A23F4FE035360034B4FF41F029A60E8
:1042100000BFBD4680BC7047001002400000FFF8A0
:1042200080B483B000AF7860134B1B68124A23F44C
:1042300080331360104B1B680F4A23F480231360F4
:104240007B68B3F5803F04D07B68B3F5802F07D03F
:104250000DE0094B1B68084A43F48033136006E005
:10426000054B1B68044A43F4A023136000BF00BF42
:104270000C37BD4680BC70470010024080B582B04C
:1042800000AF00233B600023FB710023BB71312092
:1042900000F014FB0346BB713B6801333B603B6895
:1042A000B3F5A06F02D0BB79002BF0D0312000F025
:1042B00005FB0346002B02D00123FB7101E0002324
:1042C000FB71FB7918460837BD4680BD80B485B0C8
:1042D00000AF0346FB710023FB600A4B1B68FB60C9
:1042E000FB6823F0F803FB60FB79DB00FA681343FB
:1042F000FB60044AFB68136000BF1437BD4680BCF6
:10430000704700BF0010024080B483B000AF034686
:10431000FB71044AFB79136000BF0C37BD4680BCBB
:10432000704700BF0000424280B485B000AF7860A3
:1043300039600023FB600A4B5B68FB60FB6823F479
:104340007C13FB607A683B681343FA681343FB6095
:10435000034AFB68536000BF1437BD4680BC7047FA
:104360000010024080B483B000AF0346FB71044AE2
:10437000FB79136000BF0C37BD4680BC704700BF9F
:104380006000424280B485B000AF78600023FB60DB
:10439000094B5B68FB60FB6823F00303FB60FA6872
:1043A0007B681343FB60044AFB68536000BF14370B
:1043B000BD4680BC704700BF0010024080B400AF13
:1043C000044B5B68DBB203F00C03DBB21846BD465E
:1043D00080BC70470010024080B485B000AF7860A8
:1043E0000023FB60094B5B68FB60FB6823F0F00374
:1043F000FB60FA687B681343FB60044AFB68536008
:1044000000BF1437BD4680BC704700BF001002409B
:1044100080B485B000AF78600023FB60094B5B6817
:10442000FB60FB6823F4E063FB60FA687B6813437E
:10443000FB60044AFB68536000BF1437BD4680BC74
:10444000704700BF0010024080B485B000AF7860B4
:104450000023FB60094B5B68FB60FB6823F460533F
:10446000FB607B68DB00FA681343FB60034AFB6870
:10447000536000BF1437BD4680BC70470010024037
:1044800080B483B000AF03460A46FB711346BB718C
:10449000BB79002B08D00C4B1B78DAB20A49FB79A8
:1044A0001343DBB20B7009E0074B1B78DAB2FB79E0
:1044B000DB43DBB204491340DBB20B7000BF0C37A7
:1044C000BD4680BC704700BF0910024080B483B075
:1044D00000AF7860034A7B68136000BF0C37BD46AD
:1044E00080BC7047D800424280B485B000AF78608D
:1044F0000023FB60094B5B68FB60FB6823F44043CF
:10450000FB60FA687B681343FB60044AFB685360F6
:1045100000BF1437BD4680BC704700BF001002408A
:1045200080B483B000AF0346FB710C4B00221A70BD
:104530000A4B00221A70FB79012B02D0042B04D005
:1045400007E0064B01221A7003E0044B05221A70A3
:1045500000BF00BF0C37BD4680BC70472010024032
:1045600080B483B000AF0346FB71044AFB7913604B
:1045700000BF0C37BD4680BC704700BF800442427C
:1045800080B483B000AF7860054B1A6A04497B6839
:1045900013430B6200BF0C37BD4680BC704700BFA1
:1045A0000010024080B483B000AF0346FB71044AA0
:1045B000FB79136000BF0C37BD4680BC704700BF5D
:1045C0003C04424280B487B000AF786000237B6136
:1045D00000233B610023FB600023BB604F4B5B6803
:1045E00003F00C037B617B69082B11D07B69082BDE
:1045F0003AD87B69002B03D07B69042B04D033E0CD
:104600007B68474A1A6033E07B68454A1A602FE0AE
:10461000424B5B6803F470133B61404B5B6803F4EF
:104620008033FB603B699B0C02333B61FB68002BD2
:1046300006D13B693B4A03FB02F27B681A6017E034
:10464000364B5B6803F40033002B06D03B69354AD8
:1046500003FB02F27B681A600AE03B69304A03FB05
:1046600002F27B681A6003E07B682D4A1A6000BF83
:104670002A4B5B6803F0F0037B617B691B097B615C
:10468000294A7B6913441B78DBB2BB607B681A68DC
:10469000BB68DA407B685A60204B5B6803F4E063D8
:1046A0007B617B691B0A7B611F4A7B6913441B7812
:1046B000DBB2BB607B685A68BB68DA407B689A6093
:1046C000164B5B6803F460537B617B69DB0A7B619B
:1046D000154A7B6913441B78DBB2BB607B685A6860
:1046E000BB68DA407B68DA600C4B5B6803F44043DC
:1046F0007B617B699B0B7B610C4A7B6913441B7854
:10470000DBB2BB607B68DA68BB68B2FBF3F27B6844
:104710001A6100BF1C37BD4680BC704700100240C4
:1047200000127A0000093D00A0040020B00400201F
:1047300080B483B000AF78600B46FB70FB78002B31
:1047400006D0094B5A6908497B6813434B6106E060
:10475000054B5A697B68DB43034913404B6100BF3B
:104760000C37BD4680BC70470010024080B483B057
:1047700000AF78600B46FB70FB78002B06D0094B2E
:104780009A6908497B6813438B6106E0054B9A6977
:104790007B68DB43034913408B6100BF0C37BD4688
:1047A00080BC70470010024080B483B000AF7860D6
:1047B0000B46FB70FB78002B06D0094BDA690849E1
:1047C0007B681343CB6106E0054BDA697B68DB430A
:1047D00003491340CB6100BF0C37BD4680BC704716
:1047E0000010024080B483B000AF78600B46FB70CD
:1047F000FB78002B06D0094BDA6808497B68134325
:10480000CB6006E0054BDA687B68DB430349134065
:10481000CB6000BF0C37BD4680BC70470010024023
:1048200080B483B000AF78600B46FB70FB78002B40
:1048300006D0094B1A6908497B6813430B6106E0EF
:10484000054B1A697B68DB43034913400B6100BFCA
:104850000C37BD4680BC70470010024080B483B066
:1048600000AF0346FB71044AFB79136000BF0C37AD
:10487000BD4680BC704700BF4004424280B483B054
:1048800000AF0346FB71044AFB79136000BF0C378D
:10489000BD4680BC704700BF4C00424280B483B02C
:1048A00000AF0346FB71044AFB79137000BF0C375D
:1048B000BD4680BC704700BF0710024080B487B07F
:1048C00000AF0346FB710023FB6000237B610023E4
:1048D000FB74FB795B09DBB2FB60FB68012B03D146
:1048E000124B1B687B6109E0FB68022B03D10F4B65
:1048F0001B6A7B6102E00D4B5B6A7B61FB7903F015
:104900001F03FB607A69FB6822FA03F303F00103DB
:10491000002B02D00123FB7401E00023FB74FB7C1D
:1049200018461C37BD4680BC704700BF00100240CF
:1049300080B400AF044B5B6A034A43F08073536258
:1049400000BFBD4680BC70470010024080B485B0F7
:1049500000AF0346FB710023FB73084B9A68FB7999
:104960001340002B02D00123FB7301E00023FB73F3
:10497000FB7B18461437BD4680BC704700100240D0
:1049800080B483B000AF0346FB71044AFB79137017
:1049900000BF0C37BD4680BC704700BF0A10024004
:1049A00080B582B000AF78607B682F4A934208D10F
:1049B00001210420FFF716FF00210420FFF712FF5A
:1049C0004EE07B68294A934208D101210820FFF775
:1049D00009FF00210820FFF705FF41E07B68244A1A
:1049E000934208D101211020FFF7FCFE0021102086
:1049F000FFF7F8FE34E07B681E4A934208D101219C
:104A00002020FFF7EFFE00212020FFF7EBFE27E03C
:104A10007B68194A934208D101214020FFF7E2FE4A
:104A200000214020FFF7DEFE1AE07B68134A934224
:104A300008D101218020FFF7D5FE00218020FFF75B
:104A4000D1FE0DE07B680E4A934209D101214FF45B
:104A50008070FFF7C7FE00214FF48070FFF7C2FEA1
:104A600000BF0837BD4680BD00080140000C014072
:104A7000001001400014014000180140001C0140DA
:104A80000020014080B500AF01210120FFF7AAFE00
:104A900000210120FFF7A6FE00BF80BD80B489B0D1
:104AA00000AF786039600023FB6100233B61002385
:104AB000BB610023FB6000237B610023BB603B687C
:104AC000DB7803F00F03FB613B68DB7803F0100336
:104AD000002B05D03B689B781A46FB691343FB61AA
:104AE0003B681B88DBB2002B44D07B681B687B6172
:104AF0000023BB6138E00122BB6902FA03F3FB60CB
:104B00003B681B881A46FB6813403B613A69FB68A7
:104B10009A4226D1BB699B00FB600F22FB6802FA18
:104B200003F3BB60BB68DB437A6913407B61FA69BE
:104B3000FB6802FA03F37A6913437B613B68DB7815
:104B4000282B05D10122BB699A407B685A6108E095
:104B50003B68DB78482B04D10122BB699A407B6813
:104B60001A61BB690133BB61BB69072BC3D97B6881
:104B70007A691A603B681B88FF2B46D97B685B68A3
:104B80007B610023BB613AE0BB690833012202FA72
:104B900003F3FB603B681B881A46FB6813403B61CC
:104BA0003A69FB689A4227D1BB699B00FB600F22E0
:104BB000FB6802FA03F3BB60BB68DB437A6913400E
:104BC0007B61FA69FB6802FA03F37A6913437B613C
:104BD0003B68DB78282B05D1BB69083301229A405A
:104BE0007B685A613B68DB78482B05D1BB69083389
:104BF00001229A407B681A61BB690133BB61BB69C2
:104C0000072BC1D97B687A695A6000BF2437BD463B
:104C100080BC704780B483B000AF78607B684FF68B
:104C2000FF721A807B6802229A707B680422DA7015
:104C300000BF0C37BD4680BC704780B485B000AF64
:104C400078600B467B800023FB737B689A687B88C7
:104C50001340002B02D00123FB7301E00023FB7300
:104C6000FB7B18461437BD4680BC704780B483B0C8
:104C700000AF78607B689B689BB218460C37BD46D6
:104C800080BC704780B485B000AF78600B467B80F5
:104C90000023FB737B68DA687B881340002B02D00B
:104CA0000123FB7301E00023FB73FB7B18461437E1
:104CB000BD4680BC704780B483B000AF78607B682D
:104CC000DB689BB218460C37BD4680BC704780B489
:104CD00083B000AF78600B467B807A887B681A616E
:104CE00000BF0C37BD4680BC704780B483B000AFB6
:104CF00078600B467B807A887B685A6100BF0C37EE
:104D0000BD4680BC704780B483B000AF78600B466E
:104D10007B8013467B707B78002B03D07A887B687E
:104D20001A6102E07A887B685A6100BF0C37BD4681
:104D300080BC704780B483B000AF78600B467B8046
:104D40007A887B68DA6000BF0C37BD4680BC70474C
:104D500080B485B000AF78600B467B804FF4803321
:104D6000FB607B88FA681343FB607B68FA689A6192
:104D70007A887B689A617B68FA689A617B689B692C
:104D8000FB607B689B69FB6000BF1437BD4680BC3D
:104D9000704780B485B000AF03460A46FB711346E6
:104DA000BB710023FB600C4B1B68FB60FA684FF67D
:104DB00080731340FB60FB791B01FA681343FB60AF
:104DC000BB79FA681343FB60034AFB68136000BFBA
:104DD0001437BD4680BC70470000014080B483B0EA
:104DE00000AF0346FB71044AFB79136000BF0C3728
:104DF000BD4680BC704700BF1C00204280B487B015
:104E000000AF78600B46FB7000233B610023FB6022
:104E100000237B610023BB607B68002B03DA2E4BF1
:104E2000DB697B6102E02C4B5B687B617B681B0C60
:104E300003F00F03BB607B689BB23B617B6803F4AC
:104E40004013B3F5401F0AD17B6923F070637B6187
:104E5000214B5B68204A23F07063536021E07B683C
:104E600003F48013002B0ED00322BB6802FA03F375
:104E7000FB60FB68DB437A6913407B617B6943F02D
:104E800070637B610DE07B685B0D1B013A6902FA80
:104E900003F3DB437A6913407B617B6943F0706302
:104EA0007B61FB78002B08D07B685B0D1B013A69A6
:104EB00002FA03F37A6913437B617B68002B03DA00
:104EC000054A7B69D36102E0034A7B69536000BFF6
:104ED0001C37BD4680BC70470000014080B485B0DF
:104EE00000AF03460A46FB711346BB710023FB600B
:104EF000BB7903F003039B000F2202FA03F3FB606C
:104F0000154ABB799B08DBB2023352F82320FB68B9
:104F1000DB431148B9798908C9B21A408B1C40F8A3
:104F200023200D4ABB799B08DBB2023352F82320C1
:104F3000F979BB7903F003039B0001FA03F30648F8
:104F4000B9798908C9B21A438B1C40F8232000BFE5
:104F50001437BD4680BC70470000014080B483B068
:104F600000AF7860034A7B68136000BF0C37BD4612
:104F700080BC7047DC00204280B582B000AF786012
:104F80007B680E4A93420AD101214FF40010FFF7CB
:104F900047FC00214FF40010FFF742FC09E001211B
:104FA0004FF48000FFF73CFC00214FF48000FFF736
:104FB00037FC00BF0837BD4680BD00BF005400402D
:104FC00080B58AB000AF786039600023FB8400238D
:104FD0007B840423BB84574BFB617B689B88FB84E9
:104FE000FB8C23F03F03FB8407F108031846FFF70F
:104FF000E9FA3B69FB61FB694F4AA2FB03239B0C67
:105000007B84FA8C7B8C1343FB847B68FA8C9A80BC
:105010007B681B889BB223F001039AB27B681A80DD
:105020000023FB843B681B68444A934215D83B68C5
:105030001B685B00FA69B2FBF3F3BB84BB8C032BE8
:1050400001D80423BB84FA8CBB8C1343FB847B8C78
:1050500001339AB27B681A8440E03B68DB884BF6E8
:10506000FF72934209D13B681A6813465B001344F0
:10507000FA69B2FBF3F3BB840EE03B681A6813468F
:105080009B0013449A001344FA69B2FBF3F3BB8408
:10509000BB8C43F48043BB84BB8CC3F30B03002B5A
:1050A00003D1BB8C43F00103BB84BA8CFB8C13434C
:1050B0009BB26FEA43436FEA5343FB847B8C4FF40C
:1050C000967202FB03F31E4A82FB03129211DB1756
:1050D000D31A9BB201339AB27B681A847B68FA8C2C
:1050E0009A837B681B889BB243F001039AB27B686A
:1050F0001A807B681B88FB84FB8C23F4816323F07C
:105100000203FB843B689A883B685B8913439AB22D
:10511000FB8C1343FB847B68FA8C1A803B689A896A
:105120003B681B8913439AB27B681A8100BF2837FA
:10513000BD4680BD00127A0083DE1B43A0860100BD
:10514000D34D621080B483B000AF78607B6841F2C9
:1051500088321A607B6800229A807B684BF6FF7267
:10516000DA807B6800221A817B6800225A817B6882
:105170004FF480429A8100BF0C37BD4680BC704717
:1051800080B483B000AF78600B46FB70FB78002BD7
:1051900008D07B681B889BB243F001039AB27B68FE
:1051A0001A8007E07B681B889BB223F001039AB248
:1051B0007B681A8000BF0C37BD4680BC704780B446
:1051C00083B000AF78600B46FB70FB78002B08D0F3
:1051D0007B689B889BB243F400639AB27B689A8099
:1051E00007E07B689B889BB223F400639AB27B68DC
:1051F0009A8000BF0C37BD4680BC704780B483B036
:1052000000AF78600B46FB70FB78002B08D07B6802
:105210009B889BB243F480539AB27B689A8007E0E4
:105220007B689B889BB223F480539AB27B689A80F8
:1052300000BF0C37BD4680BC704780B483B000AF60
:1052400078600B46FB70FB78002B08D07B681B88CE
:105250009BB243F480739AB27B681A8007E07B6844
:105260001B889BB223F480739AB27B681A8000BFBC
:105270000C37BD4680BC704780B483B000AF786007
:105280000B46FB70FB78002B08D07B681B889BB219
:1052900043F400739AB27B681A8007E07B681B882E
:1052A0009BB223F400739AB27B681A8000BF0C375C
:1052B000BD4680BC704780B483B000AF78600B46B9
:1052C000FB70FB78002B08D07B681B889BB243F4F3
:1052D00080639AB27B681A8007E07B681B889BB268
:1052E00023F480639AB27B681A8000BF0C37BD46F6
:1052F00080BC704780B485B000AF78600B46FB700F
:105300000023FB817B689B89FB81FB8923F0FE03E3
:10531000FB81FB781BB203F0FE031AB2B7F90E3023
:1053200013431BB2FB817B68FA899A8100BF143753
:10533000BD4680BC704780B483B000AF78600B4638
:10534000FB70FB78002B08D07B689B899BB243F0F5
:1053500001039AB27B689A8107E07B689B899BB2C4
:1053600023F001039AB27B689A8100BF0C37BD46D7
:1053700080BC704780B483B000AF78600B46FB7090
:10538000FB78002B08D07B681B889BB243F040035E
:105390009AB27B681A8007E07B681B889BB223F077
:1053A00040039AB27B681A8000BF0C37BD4680BCB0
:1053B000704780B483B000AF78600B467B801346A3
:1053C0007B707B78002B08D07B689B889AB27B88A7
:1053D00013439AB27B689A8009E07B689B889AB2F3
:1053E0007B88DB439BB213409AB27B689A8000BFF4
:1053F0000C37BD4680BC704780B483B000AF786086
:105400000B46FB70FB789AB27B681A8200BF0C37A0
:10541000BD4680BC704780B483B000AF78607B68C5
:105420001B8A9BB2DBB218460C37BD4680BC704766
:1054300080B483B000AF78600B46FB701346BB703E
:10544000BB78002B04D0FB7843F00103FB7003E032
:10545000FB7823F00103FB70FB789AB27B681A8219
:1054600000BF0C37BD4680BC704780B485B000AF2C
:1054700078600B46FB700023FB607B68FB60FA786A
:10548000FB681344FB60FB681B889BB2184614370B
:10549000BD4680BC704780B483B000AF78600B46D7
:1054A000FB70FB78002B0AD07B681B889BB26FEAED
:1054B00043436FEA53439AB27B681A8007E07B68E4
:1054C0001B889BB2C3F30E039AB27B681A8000BF9D
:1054D0000C37BD4680BC704780B483B000AF7860A5
:1054E0000B467B807B88B3F5006F08D17B681B88F7
:1054F0009BB243F400639AB27B681A8007E07B6832
:105500001B889BB223F400639AB27B681A8000BFA9
:105510000C37BD4680BC704780B483B000AF786064
:105520000B467B807B88B3F5005F08D17B681B88C6
:105530009BB243F400539AB27B681A8007E07B6801
:105540001B889BB223F400539AB27B681A8000BF79
:105550000C37BD4680BC704780B483B000AF786024
:105560000B46FB70FB78002B08D07B681B889BB236
:1055700043F480539AB27B681A8007E07B681B88EB
:105580009BB223F480539AB27B681A8000BF0C3719
:10559000BD4680BC704780B483B000AF78600B46D6
:1055A0007B807B88B3F5006F08D17B681B889BB23A
:1055B00043F400639AB27B681A8007E07B681B881B
:1055C0009BB223F400639AB27B681A8000BF0C3749
:1055D000BD4680BC704780B483B000AF78600B4696
:1055E000FB70FB78002B08D07B681B889BB243F0D4
:1055F00020039AB27B681A8007E07B681B889BB205
:1056000023F020039AB27B681A8000BF0C37BD4696
:1056100080BC704780B483B000AF78607B681B8B20
:105620009BB21B0A9BB2DBB218460C37BD4680BC4E
:10563000704780B483B000AF78600B46FB70FB7896
:10564000002B08D07B681B889BB243F010039AB2F2
:105650007B681A8007E07B681B889BB223F01003ED
:105660009AB27B681A8000BF0C37BD4680BC704779
:1056700080B483B000AF78600B46FB70FB78002BE2
:1056800008D17B681B889BB243F080039AB27B6889
:105690001A8007E07B681B889BB223F080039AB2D4
:1056A0007B681A8000BF0C37BD4680BC704780B451
:1056B00083B000AF78600B467B807B88B3F5804F6A
:1056C00008D07B689B8B9BB223F480439AB27B68A3
:1056D0009A8307E07B689B8B9BB243F480439AB22A
:1056E0007B689A8300BF0C37BD4680BC704780B48E
:1056F00087B000AF7860396000233B610023FB6016
:105700000023BB600023FB757B689B8A9BB2FB6018
:105710007B681B8B9BB2BB60BB681B04BB60FA68D9
:10572000BB68134323F07F433B613A693B681340F6
:105730003A689A4202D10123FB7501E00023FB7510
:10574000FB7D18461C37BD4680BC704780B487B0CF
:1057500000AF786000237B6100233B610023FB6086
:105760007B689B8A9BB23B617B681B8B9BB2FB6017
:10577000FB681B04FB603A69FB68134323F07F431B
:105780007B617B6918461C37BD4680BC704780B47E
:1057900087B000AF786039600023FB7500233B6160
:1057A0000023FB607B68FB603B681B0F3B613B6831
:1057B00023F07F433B603B69002B03D0FB6814332D
:1057C000FB6005E03B681B0C3B60FB681833FB602B
:1057D000FB681A683B681340002B02D00123FB755D
:1057E00001E00023FB75FB7D18461C37BD4680BCDD
:1057F000704780B485B000AF786039600023FB60EB
:105800003B6823F07F43FB60FB689BB2DB439AB2AB
:105810007B689A8200BF1437BD4680BC704780B455
:1058200085B000AF786039600023FB730023BB6054
:105830003B681B0C7A68928892B2134003F4E063D1
:10584000BB603B6823F07F433B607B689B8A9BB2D5
:105850001A463B681340002B05D0BB68002B02D0D2
:105860000123FB7301E00023FB73FB7B1846143715
:10587000BD4680BC704780B485B000AF78603960A9
:105880000023FB603B6823F07F43FB60FB689BB217
:10589000DB439AB27B689A8200BF1437BD4680BC56
:1058A000704700BF80B582B000AF78607B68264A41
:1058B00093420AD101214FF48040FEF793FF00216B
:1058C0004FF48040FEF78EFF3AE07B681F4A934218
:1058D0000AD101214FF40030FEF7A2FF00214FF45E
:1058E0000030FEF79DFF2BE07B68194A93420AD1F6
:1058F00001214FF48020FEF793FF00214FF4802018
:10590000FEF78EFF1CE07B68124A93420AD1012108
:105910004FF40020FEF784FF00214FF40020FEF733
:105920007FFF0DE07B680C4A934209D101214FF4BF
:105930008010FEF775FF00214FF48010FEF770FF16
:1059400000BF0837BD4680BD00380140004400401C
:1059500000480040004C00400050004080B58CB032
:1059600000AF786039600023FB620023BB62002334
:105970007B6200233B620023FB617B68FB617B68E9
:105980001B8A9BB2FB62FA6A4CF6FF731340FB6200
:105990003B68DB881A46FB6A1343FB62FB6A9AB2D8
:1059A0007B681A827B689B899BB2FB62FA6A4EF61F
:1059B000F3131340FB623B689A883B681B891343CF
:1059C0009AB23B685B8913439BB21A46FB6A134346
:1059D000FB62FB6A9AB27B689A817B689B8A9BB266
:1059E000FB62FA6A4FF6FF431340FB623B689B89F8
:1059F0001A46FB6A1343FB62FB6A9AB27B689A827F
:105A000007F108031846FEF7DDFDFB692E4A9342B5
:105A100002D17B69BB6201E03B69BB627B689B8909
:105A20009BB21BB2002B0CDABA6A13469B001344DC
:105A30009A001A443B681B685B00B2FBF3F37B627D
:105A40000BE0BA6A13469B0013449A001A443B6861
:105A50001B689B00B2FBF3F37B627B6A1B4AA2FBD1
:105A600003235B091B01FB62FB6A1B09642202FB27
:105A700003F37A6AD31A3B627B689B899BB21BB2A1
:105A8000002B0CDA3B6ADB003233104AA2FB032303
:105A90005B0903F00703FA6A1343FB620BE03B6AFE
:105AA0001B013233094AA2FB03235B0903F00F03F6
:105AB000FA6A1343FB62FB6A9AB27B681A8100BFE1
:105AC0003037BD4680BD00BF003801401F85EB5117
:105AD00080B483B000AF78607B684FF416521A60D0
