:020000040800F2
:1000000084110020F54D0008594E0008F54D0008F8
:100010005F4E00085F4E00085F4E000800000000C1
:100020000000000000000000000000005F4E00081B
:100030005F4E00085F4E00085F4E0008654E0008E6
:100040005F4E00085F4E00085F4E00085F4E0008DC
:100050005F4E00085F4E00081D3B00085F4E000821
:100060005F4E00085F4E00085F4E00085F4E0008BC
:100070005F4E00085F4E00085F4E00085F4E0008AC
:100080005F4E00085F4E00085F4E00085F4E00089C
:100090005F4E00085F4E00085F4E00085F4E00088C
:1000A0005F4E0008514000085F4E00085F4E000898
:1000B0005F4E00085F4E00085F4E00085F4E00086C
:1000C0005F4E00085F4E00085F4E00085F4E00085C
:1000D0005F4E0008314F0008E14F00085F4E0008F6
:1000E0005F4E00085F4E00085F4E00085F4E00083C
:1000F0005F4E00085F4E00085F4E00085F4E00082C
:100100005F4E00085F4E00085F4E00085F4E00081B
:100110005F4E00085F4E00085F4E00085F4E00080B
:100120005F4E00085F4E00085F4E00085F4E0008FB
:100130005F4E00085F4E00085F4E00085F4E0008EB
:100140005F4E00085F4E00085F4E00085F4E0008DB
:100150005F4E00085F4E00085F4E00085F4E0008CB
:100160005F4E00085F4E00085F4E00085F4E0008BB
:100170005F4E00085F4E00085F4E00085F4E0008AB
:100180005F4E00085F4E000880B483B000AF0346A6
:10019000FB71FB7903F01F03012202FA03F1054A08
:1001A00097F907305B0942F8231000BF0C37BD46B2
:1001B00080BC704700E100E080B483B000AF03462C
:1001C0003960FB7197F90730002B0BDA3B68DAB224
:1001D0000C49FB7903F00F03043B1201D2B20B442C
:1001E0001A7609E03B68DAB2074997F9073012013D
:1001F000D2B20B4483F8002300BF0C37BD4680BC4D
:10020000704700BF00ED00E000E100E080B582B083
:1002100000AF78607B68B3F1807F01D3012311E0E8
:100220007B6823F07F43094A013B53600F214FF065
:10023000FF30FFF7C1FF054B00229A60034B0722F6
:100240001A60002318460837BD4680BD10E000E064
:1002500080B483B000AF786000BF7B685A1E7A60BC
:10026000002BFAD100BF00BF0C37BD4680BC7047E1
:1002700080B500AF00224FF48051074805F06FFEB3
:100280000A2004F007FE01224FF48051024805F0D5
:1002900066FE0123184680BD000C014080B582B087
:1002A00000AF0346FB710F4B32221A700D4B052233
:1002B0005A700C4BFF229A700A4B0122DA70094ADD
:1002C000FB7913714FF47A720521064800F092F918
:1002D0000346002B01D1002300E001231846083714
:1002E000BD4680BD6809002080B584B000AFB9600C
:1002F0007A601A460346FB731346BB810F4B4A22B2
:100300001A700E4B01225A700C4AFB7B9370BB890A
:100310001A460321094800F06DF90346002B01D16C
:10032000002307E0142004F0B5FD7968B86800F0F8
:1003300007F8034618461037BD4680BD68090020FF
:1003400080B584B000AF786039600022132119486D
:1003500000F058FA174BDB79012B01D0002324E081
:10036000144B5B7ABB81BB891B02BB81114B9B7A0F
:100370009AB2BB891343BB810E4B1A7B3B681A7040
:100380000023FB730BE0FB7B03F10D02FB7B796821
:100390000B4408498A5C1A70FB7B0133FB73054BE5
:1003A0001B7BFA7B9A42EED3012318461037BD46D9
:1003B00080BD00BFA809002080B500AF124B1422F9
:1003C0001A70114B01225A700F4B14229A700E4B67
:1003D0000022DA704FF4FA7204210B4800F00AF997
:1003E0000346002B01D100230BE0FF22092107481F
:1003F00000F008FA054B9B79152B0CBF0123002355
:10040000DBB2184680BD00BF68090020A8090020A3
:1004100080B582B000AF0C4B04221A704FF4FA7210
:100420000121094800F0E6F80346002B01D1002322
:1004300005E0FF220D21054800F0E4F97B6818462D
:100440000837BD4680BD00BF68090020A80900200C
:1004500080B584B000AF344BBB6040F2D513BB8095
:100460004FF020333B60314B00221A702F4B00229B
:100470005A702E4B04229A702C4B5422DA702B4B5C
:1004800065221A71294B73225A71284B74229A7172
:100490004FF4FA720721254800F0ACF80346002B10
:1004A00001D100233CE0FF221021214800F0AAF9ED
:1004B0000023FB7331E0FB7B1D4AD25C3B799A42FF
:1004C00028D1FB7B01331A4AD25C7B799A4221D135
:1004D0000023BB730DE0FB7B1A1DBB7B1A44BB7B67
:1004E00013498A5C10333B4403F8102CBB7B013367
:1004F000BB73BB7B032BEED9394607F108030422FB
:10050000184607F0D1FA0346002B01D0002307E07C
:10051000012305E0FB7B0133FB73FB7B0F2BCAD967
:1005200018461037BD4680BD5465737468090020B5
:10053000A809002080B584B000AF2B4A3B4692E862
:100540000300186004331980284B02221A704FF4FC
:10055000FA720121254800F04DF80346002B01D125
:1005600000233CE0FF220D21214800F04BF93B46DF
:10057000062219461E4807F097FA0346002B01D0C1
:1005800000232CE00723FB60FB685A1CFA60184A22
:10059000D35CBB60BB681B02BB60FB685A1CFA6083
:1005A000134AD35C1A46BB681343BB60BB681B028B
:1005B000BB60FB685A1CFA600D4AD35C1A46BB68E4
:1005C0001343BB60BB681B02BB60FB685A1CFA602C
:1005D000074AD35C1A46BB681343BB60BB68184626
:1005E0001037BD4680BD00BF68850008680900203F
:1005F000A809002080B582B000AF78600B46FB7080
:1006000013463B80FB781946786800F01BF83B885E
:10061000184600F091FA0346002B01D100230DE0AB
:100620006420FFF715FE00F05FF90346002B01D1AF
:10063000002303E06420FFF70BFE01231846083770
:10064000BD4680BD2DE9F04389B000AF78600B4610
:10065000FB706B461E46FB7803F108014B1E3B61A5
:100660000A460023904699464FF000024FF00003DF
:100670004FEAC90343EA58734FEAC8020A46002307
:1006800014461D464FF000024FF00003EB0043EA12
:100690005473E2000B460733DB08DB00ADEB030DC0
:1006A0006B460033FB60FB68BB61FB780133FB707A
:1006B000BB6901221A70BB690133BB61BB690022AF
:1006C0001A70BB690133BB61BB6900221A70BB6938
:1006D0000133BB61BB69FF221A70BB690133BB6187
:1006E000FF23FB75BB69FA781A70BB690133BB61E4
:1006F000FB785B42DAB2BB691A70BB690133BB613C
:10070000BB69D4221A70BB690133BB61FB7D2C3BF2
:10071000FB750023FB7712E0FB7F7A6813441A789D
:10072000BB691A70BB690133BB61FB7F7A681344F4
:100730001A78FB7D1344FB75FB7F0133FB77FA7F4F
:10074000FB78013B9A42E7DBFB7DDB43DAB2BB6916
:100750001A70BB690133BB61BB6900221A70BB69A7
:100760000133BB61FB7808331946F86800F006F8DE
:10077000B54600BF2437BD46BDE8F08380B584B0E0
:1007800000AF7860396000BF02211C4807F00DF906
:100790000346002BF8D000224FF48051184805F092
:1007A000DEFB022004F076FB0023FB6017E07A6892
:1007B000FB6813441B789BB21946104807F00CF8ED
:1007C0004FF4C870FFF744FD00BF02210B4807F04B
:1007D000ECF80346002BF8D0FB680133FB60FA68A5
:1007E0003B689A42E3D301224FF48051044805F05C
:1007F000B6FB00BF1037BD4680BD00BF00380040CB
:10080000000C014080B584B000AF78600B46FB70EF
:1008100013463B8000224FF48051314805F09FFB86
:10082000022004F037FB00BF02212E4807F0BDF87C
:100830000346002BF8D003212A4806F0CDFF00BF65
:100840000221284807F0B1F80346002BF8D000BF7A
:100850000121244807F0A9F80346002BF8D02148CD
:1008600006F0C8FF0346BB730023FB7329E04FF477
:10087000C870FFF7EDFC3B8819461A4806F0ACFF3C
:100880004FF4C870FFF7E4FC00BF0221154807F0E1
:100890008CF80346002BF8D000BF0121114807F067
:1008A00084F80346002BF8D00E4806F0A3FF034659
:1008B0001946FB7B7A681344CAB21A70FB7B01337A
:1008C000FB73FA7BFB789A42D1D301224FF480511B
:1008D000034805F044FB00BF1037BD4680BD00BF94
:1008E000000C01400038004080B584B000AF3F4AA2
:1008F00007F1080392E8030018600433198000220E
:100900004FF480513A4805F02AFB022004F0C2FA65
:1009100000BF0221374807F048F80346002BF8D003
:100920000321344806F058FF00BF0221314807F088
:100930003CF80346002BF8D000BF01212D4807F0FA
:1009400034F80346002BF8D02A4806F053FF03463C
:10095000BB730023FB732FE06420FFF779FC00BF1B
:100960000221244807F021F80346002BF8D000218B
:10097000204806F031FF6420FFF76AFC00BF022127
:100980001C4807F012F80346002BF8D000BF0121E5
:10099000184807F00AF80346002BF8D0154806F06F
:1009A00029FF03461A46FB7BD2B210333B4403F8BF
:1009B000102CFB7B0133FB73FB7B052BCCD9012275
:1009C0004FF480510A4805F0CAFA07F108013B4686
:1009D0000622184607F068F80346002B0CBF0123D7
:1009E0000023DBB218461037BD4680BD7085000875
:1009F000000C01400038004080B582B000AF00BF5D
:100A00000221494806F0D1FF0346002BF8D000BF71
:100A10000121454806F0C9FF0346002BF8D04248A3
:100A200006F0E8FE03461946404B1B781A46C9B249
:100A30003F4B99543D4B1B780133DAB23B4B1A7054
:100A400000224FF480513B4805F089FA022004F05F
:100A500021FA0221344806F0BFFE00BF02213248CD
:100A600006F0A3FF0346002BF8D000BF01212E485B
:100A700006F09BFF0346002BF8D02B4806F0BAFE89
:100A800003461946294B1B781A46C9B2284B99547C
:100A9000264B1B780133DAB2244B1A704FF4C8701E
:100AA000FFF7D6FB00BF02211F4806F07EFF03467A
:100AB000002BF8D0FF211C4806F08EFE4FF4C870C2
:100AC000FFF7C6FB00BF0221174806F06EFF034682
:100AD000002BF8D000BF0121134806F066FF034643
:100AE000002BF8D0104806F085FE0346FB7101226A
:100AF0004FF480510F4805F032FA0C4B1B78194621
:100B00000B4AFB795354094B1B780133DAB2074B7C
:100B10001A70FB79012B0CBF01230023DBB21846AE
:100B20000837BD4680BD00BF003800406409002082
:100B300050090020000C014080B584B000AF03468E
:100B4000FB800023FB81052004F0A4F9FB89053319
:100B5000FB810EE0FB88002B08D0FB890533FB816D
:100B6000FA89FB889A4201D9002308E0052004F0A5
:100B700091F9FFF741FF0346002BEBD00123184604
:100B80001037BD4680BD80B586B000AF78600B469B
:100B9000FB70FB784FF4FA7219467868FFF72AFD6C
:100BA0000346002B01D1002328E0FF22082115482D
:100BB000FFF728FE134BDB78033BFB7400237B61BC
:100BC0000BE07B6903F108027B6979680B440D49EE
:100BD0008A5C1A707B6901337B61FB7C7A699A427B
:100BE000EFDBFB7CFB700623FB60064AFB681344CB
:100BF0001B78152B0CBF01230023DBB218461837D6
:100C0000BD4680BDA809002080B584B000AF7860E3
:100C10003960194B86221A704FF4FA720121164876
:100C2000FFF7E8FC0346002B01D100231FE0FF2261
:100C300040211248FFF7E6FD104BDB78033BFB72C7
:100C40000023FB600BE0FB6803F10802FB68796896
:100C50000B440A498A5C1A70FB680133FB60FB7A1B
:100C6000FA689A42EFDB3B68FA7A1A700123184659
:100C70001037BD4680BD00BF68090020A8090020CC
:100C8000B0B58EB000AF164B8C221A70154B3C4697
:100C90001D460FCD0FC40FCD0FC40FCD0FC42B6851
:100CA00023603B46642234211846FFF7A3FC034629
:100CB000002B01D100230FE0FF2208210848FFF795
:100CC000A1FD06237B63064A7B6B13441B78152B1F
:100CD0000CBF01230023DBB218463837BD46B0BD38
:100CE000680900207885000880B586B000AFF860FC
:100CF0007A601A460B46FB721346BB722F4B3A6A58
:100D00001068186092889A80FB7A1A46F9682C4815
:100D100006F0FEFE97F90B202A4B1A702A4B402250
:100D20001A70294B01225A70BB7A002B01D0612224
:100D300000E06022244B9A707B68DAB2224BDA70B2
:100D4000224B1E4A1068186092889A800023FB7517
:100D50000AE0FB7D1A4AD256FB7D0A33D1B21A4A09
:100D6000D154FB7D0133FB75FB7D164A92F90020BF
:100D70009342EEDB134B93F90030DBB20A33DBB264
:100D8000642219461048FFF735FC0346002B01D1B9
:100D900000230EE00A2004F07DF8FF220C210C480D
:100DA000FFF730FD0A4BDB79002B01D0002300E078
:100DB000012318461837BD4680BD00BFF00900204A
:100DC000E8090020EF090020680900206C090020D4
:100DD000A809002080B582B000AF03463960FB71DE
:100DE000174B40221A70164B01225A70144B3022B6
:100DF0009A70134AFB79D370642204211048FFF7DC
:100E0000F9FB0346002B01D1002314E00A2004F073
:100E100041F8FF221A210B48FFF7F4FC094BDB795C
:100E2000002B01D0002306E0074B1022194638683A
:100E300006F06EFE012318460837BD4680BD00BF90
:100E400068090020A8090020B009002080B582B000
:100E500000AF03463960FB71154B40221A70144BEA
:100E600001225A70124BA0229A70114AFB79D3705A
:100E7000104B10223968184606F04AFE64221421ED
:100E80000B48FFF7B7FB0346002B01D100230BE013
:100E90000A2003F0FFFF0A2003F0FCFFFF221A21C3
:100EA0000548FFF7AFFC012318460837BD4680BD53
:100EB000680900206C090020A809002080B58EB0C8
:100EC00002AFF8607B600B46FB721346BB720023D7
:100ED00087F82F30204A07F1240392E803001860B6
:100EE00004331980002387F82E301C4A07F11003C1
:100EF0001268114619800233120C1A70F97A07F140
:100F00002403009301230022F868FFF7EDFE034657
:100F1000002B05D1012387F82D3097F82D3016E0EE
:100F2000BB7A79681846FFF755FF034687F82D30DE
:100F300097F82D30002B05D1022387F82D3097F834
:100F40002D3004E0002387F82D3097F82D30184617
:100F50003037BD4680BD00BFAC850008B4850008B1
:100F600080B485B000AF78600023FB60094B1B683C
:100F7000FB60FB6803F03803FB60FA687B6813438F
:100F8000FB60044AFB68136000BF1437BD4680BC99
:100F9000704700BF0020024080B483B000AF78608B
:100FA000084B1B68074A23F008031360054B1A68B7
:100FB00004497B6813430B6000BF0C37BD4680BCFF
:100FC000704700BF0020024080B483B000AF78605B
:100FD000084B1B68074A23F010031360054B1A687F
:100FE00004497B6813430B6000BF0C37BD4680BCCF
:100FF000704700BF0020024080B400AF044B054A98
:101000005A60034B044A5A6000BFBD4680BC70471B
:101010000020024023016745AB89EFCD80B400AFCB
:10102000044B054A5A60034B044A5A6000BFBD4650
:1010300080BC70470020024023016745AB89EFCD9B
:1010400080B400AF044B1B69034A43F08003136173
:1010500000BFBD4680BC70470020024080B400AF96
:10106000044B1B69034A43F08003136100BFBD4674
:1010700080BC70470020024080B584B000AF78602B
:101080000423FB734FF4302000F0D0FB0346FB73C6
:10109000FB7B042B1BD1104B1B690F4A43F002034F
:1010A00013610D4A7B6853610B4B1B690A4A43F07D
:1010B000400313614FF4302000F0B8FB0346FB738C
:1010C000054B1A69044941F6FD7313400B61FB7B24
:1010D00018461037BD4680BD0020024080B582B062
:1010E00000AF0423FB714FF4302000F09FFB034658
:1010F000FB71FB79042B18D10E4B1B690D4A43F091
:10110000040313610B4B1B690A4A43F0400313614C
:101110004FF4302000F08AFB0346FB71054B1A693F
:10112000044941F6FB7313400B61FB7918460837FD
:10113000BD4680BD0020024080B582B000AF0423D0
:10114000FB714FF4302000F093FB0346FB71FB79F9
:10115000042B18D10E4B1B690D4A43F00403136195
:101160000B4B1B690A4A43F0400313614FF43020D4
:1011700000F07EFB0346FB71054B1A69044941F6FA
:10118000FB7313400B61FB7918460837BD4680BDE1
:101190000020024080B582B000AFA523FB8004236D
:1011A0007B7100F06BFA0346002B01D00023FB801B
:1011B0004FF4302000F03AFB03467B717B79042B1F
:1011C00045D1254B254A9A60234B254A9A60224BEC
:1011D0001B69214A43F0200313611F4B1B691E4A00
:1011E00043F0400313614FF4302000F01FFB03462F
:1011F0007B717B79042B20D1174B1A69164941F674
:10120000DF7313400B61144B1B69134A43F0100347
:101210001361144AFB8813804FF4005000F006FB62
:1012200003467B717B79052B11D00B4B1A690A4958
:1012300041F6EF7313400B6109E07B79052B06D073
:10124000054B1A69044941F6EF7313400B617B7932
:1012500018460837BD4680BD00200240230167457F
:10126000AB89EFCD00F8FF1F80B584B000AF786088
:1012700039600423FB730023BB604FF4005000F07F
:10128000D5FA0346FB73FB7B042B2FD11A4B1B694A
:10129000194A43F0010313617B683A6892B21A80DD
:1012A0004FF4005000F0C2FA0346FB73FB7B042BA3
:1012B00015D17B680233BB603B681A0CBB6892B2E5
:1012C0001A804FF4005000F0B1FA0346FB730A4B4A
:1012D0001A69094941F6FE7313400B6106E0064B9B
:1012E0001A69054941F6FE7313400B61FB7B1846F2
:1012F0001037BD4680BD00BF0020024080B584B0DD
:1013000000AF78600B467B800423FB734FF40050E2
:1013100000F08CFA0346FB73FB7B042B15D10D4BBD
:101320001B690C4A43F0010313617B687A881A80B9
:101330004FF4005000F07AFA0346FB73054B1A692C
:10134000044941F6FE7313400B61FB7B18461037CE
:10135000BD4680BD0020024080B584B000AF7860FB
:101360000B46FB700423FB734FF4005000F05EFA51
:101370000346FB73FB7B042B1FD1124B124A9A606E
:10138000104B124A9A600F4B1B690E4A43F0100330
:1013900013617B68FA7892B21A804FF4005000F023
:1013A00045FA0346FB73FB7B052B06D0054B1A69F8
:1013B000044941F6EF7313400B61FB7B184610376D
:1013C000BD4680BD0020024023016745AB89EFCDBB
:1013D00080B586B000AF78604FF6FF73BB824FF6E2
:1013E000FF737B824FF6FF733B824FF6FF73FB81E7
:1013F0000423FB757B68DB437B607B689BB2DBB2BD
:10140000BB827B681B0A9BB2DBB27B827B681B0CB6
:101410009BB2DBB23B827B681B0EFB814FF400501A
:1014200000F004FA0346FB75FB7D042B4ED12A4BDA
:101430002A4A9A60284B2A4A9A60274B1B69264AF7
:1014400043F010031361BB8AFF2B08D0254ABB8AE7
:1014500013814FF4005000F0E9F90346FB75FB7D62
:10146000042B0BD17B8AFF2B08D01E4A7B8A538129
:101470004FF4005000F0DAF90346FB75FB7D042BB6
:101480000BD13B8AFF2B08D0164A3B8A93814FF43D
:10149000005000F0CBF90346FB75FB7D042B0BD10C
:1014A000FB89FF2B08D00F4AFB89D3814FF40050F2
:1014B00000F0BCF90346FB75FB7D052B06D0064BFF
:1014C0001A69054941F6EF7313400B61FB7D18461D
:1014D0001837BD4680BD00BF00200240230167458C
:1014E000AB89EFCD00F8FF1F80B584B000AF034695
:1014F000FB710423FB734FF4302000F097F903468F
:10150000FB73FB7B042B4CD1284B294A9A60274B59
:10151000284A9A60254B1B69244A43F02003136133
:10152000224B1B69214A43F0400313614FF43020E2
:1015300000F07CF90346FB73FB7B042B27D11B4B8C
:101540001A691A4941F6DF7313400B61174B1B6987
:10155000164A43F010031361FB79002B03D0164B9E
:1015600000221A8002E0144BA5221A804FF430208A
:1015700000F05CF90346FB73FB7B052B11D00B4B92
:101580001A690A4941F6EF7313400B6109E0FB7BCE
:10159000052B06D0054B1A69044941F6DF73134049
:1015A0000B61FB7B18461037BD4680BD0020024012
:1015B00023016745AB89EFCD00F8FF1F80B584B0EC
:1015C00000AF0346FB800B46BB8013467B800423A1
:1015D000FB731B4B1B4A9A60194B1B4A9A604FF4D2
:1015E000005000F023F90346FB73FB7B042B21D151
:1015F000134B1B69124A43F0100313617A88BB88AE
:1016000013439AB2FB8813439BB2104A43F0F8038A
:101610009BB253804FF4005000F008F90346FB736F
:10162000FB7B052B06D0064B1A69054941F6EF7383
:1016300013400B61FB7B18461037BD4680BD00BFD1
:101640000020024023016745AB89EFCD00F8FF1F62
:1016500080B400AF034BDB699B081846BD4680BCD5
:10166000704700BF0020024080B400AF024B1B6AED
:101670001846BD4680BC70470020024080B483B04D
:1016800000AF0023FB71084BDB6903F00203002B62
:1016900002D00123FB7101E00023FB71FB791846A6
:1016A0000C37BD4680BC70470020024080B483B038
:1016B00000AF0023FB71084B1B6803F02003002BD5
:1016C00002D00123FB7101E00023FB71FB79184676
:1016D0000C37BD4680BC70470020024080B483B008
:1016E00000AF78600B46FB70FB78002B06D0094BEF
:1016F0001A6908497B6813430B6106E0054B1A69B8
:101700007B68DB43034913400B6100BF0C37BD46C8
:1017100080BC70470020024080B485B000AF786084
:101720000023FB737B68012B0BD10E4BDB6903F0AD
:101730000103002B02D00123FB730DE00023FB7398
:101740000AE0084BDA687B681340002B02D00123C3
:10175000FB7301E00023FB73FB7B18461437BD4687
:1017600080BC70470020024080B483B000AF786036
:10177000034A7B68D36000BF0C37BD4680BC70470E
:101780000020024080B483B000AF0423FB71114BF2
:10179000DB6803F00103012B02D10123FB7113E08D
:1017A0000C4BDB6803F00403002B02D00223FB7117
:1017B0000AE0084BDB6803F01003002B02D0032380
:1017C000FB7101E00423FB71FB7918460C37BD4621
:1017D00080BC70470020024080B483B000AF042377
:1017E000FB71114BDB6803F00103012B02D10123D4
:1017F000FB7113E00C4BDB6803F00403002B02D0F9
:101800000223FB710AE0084BDB6803F01003002B96
:1018100002D00323FB7101E00423FB71FB7918461E
:101820000C37BD4680BC70470020024080B584B0B4
:1018300000AF78600423FB73FFF7CEFF0346FB7312
:1018400006E0FFF7C9FF0346FB737B68013B7B6043
:10185000FB7B012B02D17B68002BF2D17B68002B34
:1018600001D10523FB73FB7B18461037BD4680BDB5
:1018700080B584B000AF78600423FB73FFF7ACFF42
:101880000346FB7306E0FFF7A7FF0346FB737B6885
:10189000013B7B60FB7B012B02D17B68002BF2D1EB
:1018A0007B68002B01D10523FB73FB7B18461037A7
:1018B000BD4680BD80B487B000AF786039607B687A
:1018C000654AA2FB0312120C644901FB02F29B1A47
:1018D0007B617B6803F52843C0335F4AA2FB032387
:1018E000DA0B5F4B13443B613B695B083B613A6930
:1018F0005C4BA3FB0213D11A49080B4499080B4611
:10190000DB005B1AD11ACAB23B685A723B6903F515
:10191000FA432C333B613B699B000333524AA2FBE1
:101920000323DB0BFB73FB7B504A02FB03F3002B0F
:1019300000DA03339B101A463B699B1A3B613B69F3
:101940009B0003334A4AA2FB0323DB09BB73BB7B27
:1019500040F2B55202FB03F3002B00DA03339B1075
:101960001A463B699B1A3B613A6913469B00134434
:101970000233404AA2FB0323DB097B733B69D9B2E4
:101980007A7B1346DB0013441A01134402333A4AAC
:1019900082FB03025210DB17D31ADBB2CB1ADBB285
:1019A0000133DAB23B685A717B7B344AA2FB0323D2
:1019B000DB08DBB21A469B00D31A9B00DAB27B7BB2
:1019C0001344DBB20333DAB23B681A71FB7B642247
:1019D00003FB02F2BB7B1344A3F596537A7B2749A2
:1019E000A1FB0212D208D2B21A443B681A607B698A
:1019F000234AA2FB0323DB0ADAB23B689A717A69B5
:101A00001F4BA3FB0213DB0A4FF4616101FB03F3DD
:101A1000D31A1C4AA2FB03235B09DAB23B68DA71D2
:101A20007B69174AA2FB0312D20A4FF4616101FBE2
:101A300002F29A1A134BA3FB021359090B461B011E
:101A40005B1A9B00D11ACAB23B681A7200BF1C37DE
:101A5000BD4680BC704700BF07452EC280510100C3
:101A6000177B4A0025499224BD066B39B13A020022
:101A700073B06D16D7802BD667666666CDCCCCCC9E
:101A8000C5B3A2918988888880B489B000AF786096
:101A90007B681B79C3F10E03354A82FB0312521097
:101AA000DB17D31AFB777B681B6803F59652FB7F25
:101AB000D31ABB617B681A79FB7F194649000B4436
:101AC0009B00DBB21344DBB2033BFB757B685B79A5
:101AD0001946FA7D1346DB0013441A0113440233FE
:101AE000244A82FB03025210DB17D31ACA18BB69BF
:101AF00040F26D1101FB03F31A44BB69002B00DABD
:101B000003339B101A44BB691B4981FB0301491134
:101B1000DB175B1A1A44BB69174981FB0301C91122
:101B2000DB17CB1A1A44154B13443B613B69144A2B
:101B300002FB03F3FB607B681B7A19467B68DB7949
:101B40001A4613461B019B1A9B00CA187B689B7997
:101B500019464FF4616301FB03F313441A46FB6813
:101B60001344FB60FB6818462437BD4680BC7047B1
:101B7000ABAAAA2A676666661F85EB514745DAFF5E
:101B80008051010080B400AF3B4B1B6A03F400435B
:101B9000B3F5004F6CD0384BDB69374A43F0C05384
:101BA000D361364B1B68354A43F480731360324B64
:101BB0001B6A314A43F4803313622F4B1B6A2E4A4F
:101BC00023F4803313622C4B1B6A2B4A43F40143EA
:101BD0001362294B1B6A284A43F00103136200BFBA
:101BE000254B1B6A03F00103012BF9D1244B9B8D7C
:101BF0009BB2234A43F003039BB2938500BF214B62
:101C00009B889BB203F02003002BF8D01D4B9B88D0
:101C10009BB21C4A43F010039BB29380194B47F6CA
:101C2000FF729A81174B9B889BB2164A23F01003D0
:101C30009BB2938000BF134B9B889BB203F02003A1
:101C4000002BF8D00F4B9B889BB20E4A23F0100359
:101C50009BB2938000BF0B4B9B889BB203F00803A1
:101C6000082BF8D1054B1B68044A23F480731360DA
:101C700000BFBD4680BC70470010024000700040AD
:101C8000006C00400028004080B400AF054B1B8B67
:101C90009BB21B04034A928B92B213431846BD4673
:101CA00080BC70470028004080B483B000AF7860EB
:101CB0001F4BDB691E4A43F0C053D3611D4B1B68A9
:101CC0001C4A43F48073136000BF1B4B9B889BB27C
:101CD00003F02003002BF8D0174B9B889BB2164AC9
:101CE00043F010039BB293807B681A0C124B92B2A4
:101CF0001A83114B7A6892B29A830F4B9B889BB2DE
:101D00000D4A23F010039BB2938000BF0A4B9B88BF
:101D10009BB203F02003002BF8D0064B1B68054A4A
:101D200023F48073136000BF0C37BD4680BC70473E
:101D300000100240007000400028004080B500AF55
:101D40001249134806F048F81249114806F024F8E1
:101D500011490F4806F020F810490D4806F01CF80C
:101D60000F490B4806F018F80E49094806F014F818
:101D70000949074806F010F80B49054806F00CF829
:101D80000A49034806F008F800BF80BDB0020020F1
:101D9000880C00208402002078020020C00200206D
:101DA000880200208C020020D00200209002002037
:101DB00080B582B000AF0D490D4806F01DFB78607C
:101DC00079680C4806F008F80B490A4805F0E4FF6A
:101DD0000649002006F010FB78607968054805F098
:101DE000DBFF00BF0837BD4680BD00BFB8850008D7
:101DF0006C0B0020080D00207802002080B485B014
:101E000000AF78600B46FB700023FB60FB78042B6F
:101E100020D17B681B78FB60FB681B02FB607B6842
:101E200001331B781A46FB681343FB60FB681B02F7
:101E3000FB607B6802331B781A46FB681343FB6028
:101E4000FB681B02FB607B6803331B781A46FB6848
:101E50001343FB60FB6818461437BD4680BC7047CF
:101E600080B582B000AF0121042003F0ABFD022356
:101E7000BB711023FB718023BB803B1D19460648B4
:101E800003F038FF00228021034804F068F800BF07
:101E90000837BD4680BD00BF0008014080B400AFD8
:101EA000154B9B69144A43F004039361134B1B6861
:101EB000124A23F04C4323F4400313600F4B1B687A
:101EC0000E4A23F04C5323F4401313600B4B1B6852
:101ED0000A4A43F430031360084B1B68074A43F077
:101EE00080631360054B1B68044A43F03043136062
:101EF00000BFBD4680BC7047001002400008014092
:101F000080B500AF01210D2003F05CFD012101200F
:101F100004F0A0F8114B1B68104A23F44C0323F47F
:101F2000404313600D4B1B680C4A23F44C1323F4FD
:101F300040531360094B1B68084A43F43043136055
:101F4000064B1B68054A43F480231360034B1B6850
:101F5000024A43F43003136000BF80BD000C01400F
:101F600080B500AF0020FFF717F81020FFF72CF81E
:101F70000120FEF7F5FF00BF80BD80B483B000AF45
:101F800078607B681B6818460C37BD4680BC70477C
:101F900080B584B000AF7860084BFB60FFF72CF889
:101FA000F868FFF769F87968F868FFF75DF9FFF7F7
:101FB00047F800BF1037BD4680BD00BF00C800080D
:101FC00080B58EB000AFBA4B00221A72FFF7DAFD6F
:101FD000002003F0F3FA4FF4803003F04DFA0120B3
:101FE00003F078FD4FF4E0114FF4803003F0C8FAAD
:101FF000022003F0F3FA0023FB62AE4B5B68FB6246
:10200000AC4AFB6A23F470635360AA4AFB6A43F448
:10201000A0635360A74B5B68A64A43F480035360F8
:10202000012003F0CBFAA44803F0F8FBA24B5B6855
:10203000A24AA2FB03239B091846FEF7E7F8A04B30
:1020400000221A709F4B1B681846FFF72DFE01F007
:1020500021FC01F04BFD01219B4803F01AFF0346D0
:102060001A469A4B1A70994B1A78994B1A7001F0CC
:1020700079FE01F09FFD01F01DFE02F015F9954B70
:1020800000221A70944B00221A7002F017FFB862F7
:1020900002F014FF78627B6A3B62904805F024FFEF
:1020A000034619468D4801F0DDFD8D4805F01CFF03
:1020B000034619468A4801F0D5FD8A4805F014FF09
:1020C00003461946874801F0CDFDC8228649874856
:1020D00001F0A1F9FEF7CCF803461A46844B1A70BA
:1020E000FEF76AF903461A46824B1A70FEF722FA87
:1020F000F861FB69002B13D0774B1B7843F0010389
:10210000DAB2754B1A70F86902F02CFAFF20FEF76C
:10211000C5F803461A46784B1A70784B00221A709D
:10212000774B01221A70774B00221A700C217648E7
:1021300000F090FF0023BB6100237B6302F0BEFE32
:10214000B861BB697B6302E002F0B8FE78636C4B58
:102150001B78002BF8D17A6BBB69D31AB3F57A7F61
:10216000F2D8674B1B78002B06D15B4B1B7843F0F2
:102170001003DAB2584B1A70574B1B78112B00F230
:10218000748101A252F823F0D12100081522000821
:102190006B2400086B2400086B2400086B240008E3
:1021A0006B2400086B2400086B2400086B240008D3
:1021B0006B2400086B2400086B2400086B240008C3
:1021C0006B2400086B240008452300089D230008A9
:1021D0004E4805F089FE034619464D4801F042FD80
:1021E0004C4805F081FE034619464A4801F03AFD85
:1021F0001C21494801F036FD464805F075FE0346AE
:102200001946444801F02EFDC8224349404801F0D8
:1022100002F92AE13D4805F067FE034619463C48AD
:1022200001F020FD3B4805F05FFE034619463948A2
:1022300001F018FD394805F057FE034619463748A6
:1022400001F010FD0221364801F00CFD0221354855
:1022500001F008FD344805F047FE034619463248B0
:1022600001F000FD0321314801F0FCFC0023194678
:102270002F4801F0F7FC03212E4801F0F3FC022166
:10228000284801F0EFFC0A212B4801F0EBFC022169
:102290002A4801F0E7FC0221224801F0E3FCFFF7A5
:1022A0004DFDC82226491A4801F0B5F8DDE000BF0F
:1022B000BC0A002000100240FC090020D34D62102F
:1022C000250B002040040020000C0140690C002078
:1022D000680C00203D0C0020DE0D002034010020A1
:1022E00040010020800100205C000020440000200C
:1022F0003E0C00203F0C0020400C0020410C002030
:10230000690B00206A0B00201000002098010020BB
:10231000D8000020C4010020BC000020B002002032
:102320008402002080020020C002002088020020D9
:102330007C0200208C020020D002002090020020AD
:10234000880C0020714805F0CFFD034619466F4800
:1023500001F088FC6E4805F0C7FD034619466C483D
:1023600001F080FC6B4805F0BFFD03461946694843
:1023700001F078FC1C21684801F074FC654805F008
:10238000B3FD03461946634801F06CFCFFF710FDEE
:10239000C8226149614801F03EF866E05B4805F0FB
:1023A000A3FD03461946594801F05CFC584805F066
:1023B0009BFD03461946564801F054FC554805F06C
:1023C00093FD03461946534801F04CFC544805F070
:1023D0008BFD03461946524801F044FC0221514846
:1023E00001F040FC0221504801F03CFC4F4805F050
:1023F0007BFD034619464D4801F034FC03214C484F
:1024000001F030FC002319464A4801F02BFC03215F
:10241000494801F027FC0221434801F023FC0A212E
:10242000464801F01FFC0221454801F01BFC022137
:102430003D4801F017FCFFF7BBFCFFF77FFCC8220B
:102440004049364800F0E7FF802000F017FF3E4883
:1024500000F0C4FFC02000F011FF3C4800F0BEFFB8
:1024600021213B4801F0FEFB00BF01F093FD01F08C
:10247000CBFD384B1B78012B10D100F06FFD0621EE
:10248000354801F0EFFB234805F02EFD03461946C1
:10249000204801F0E7FB2F4B00221A702F4B1B78CE
:1024A000002B40F037841BE02D4B1B685A1C2C4935
:1024B0000A60F9792B4AD154294B1B68294A00211B
:1024C000D154274B1B687F2B0ADD274B80221946EE
:1024D000244805F093FB224B1B68013B204A136004
:1024E000FB1D184602F0F6FC0346012BDCD01F4909
:1024F0001C4805F0CDFE0346002B00F09B811B49D4
:10250000184805F079FF174B3B6334E09801002031
:102510006C0B0020C4010020BC000020080D00202E
:10252000B00200208402002080020020C0020020AF
:10253000880200207C0200208C020020D0020020B3
:1025400090020020880C002050000020B0000020E5
:102550005C0100206E0C0020DC0200206F0C0020CB
:10256000980A0020140A0020150A0020B8850008E7
:102570003B6B01333B63BC49386B05F011FD0346EF
:10258000002BF5D1B94805F0AFFC03461A460021EF
:10259000B64805F0AFFB1A22B549B44805F07AFCFD
:1025A000396BB24805F0F8FB802000F067FEB148B7
:1025B00000F014FFC02000F061FEAE4800F00EFFF6
:1025C00000224FF44871A94801F03CF8AA4805F0F0
:1025D0008BFC034601337B61A84B1A687B69D31AD5
:1025E000A64A13607B69A44A99187B69C3F18103E9
:1025F0001A46A14805F002FBFFF746FB0346A04A36
:1026000013609F4B1B6807F1080211461846FFF73D
:1026100051F907F108031846FFF736FA0346994ABD
:1026200013607B7B984AA2FB0323DB08DBB23033C9
:10263000DAB2964B1A707A7B934BA3FB0213D9083C
:102640000B469B000B445B00D31ADBB23033DAB28B
:102650008E4B5A703B7B8C4AA2FB0323DB08DBB218
:102660003033DAB2894BDA703A7B874BA3FB021323
:10267000D9080B469B000B445B00D31ADBB2303306
:10268000DAB2824B1A71BB68814A82FB0312921143
:10269000DB17D21A7F4B83FB02139910D317C91A89
:1026A0000B469B000B445B00D11ACBB23033DAB23D
:1026B000764B9A71BB68784A82FB03125211DB1782
:1026C000D21A744B83FB02139910D317C91A0B4605
:1026D0009B000B445B00D11ACBB23033DAB26B4BA8
:1026E000DA71BB686B4A82FB03129210DB17D21AB5
:1026F000684B83FB02139910D317C91A0B469B0032
:102700000B445B00D11ACBB23033DAB25F4B1A7292
:10271000BA68604B83FB02139910D317C91A0B4692
:102720009B000B445B00D11ACBB23033DAB2574B6B
:102730005A72BB7B544AA2FB0323DB08DBB2303363
:10274000DAB2524BDA72BA7B4F4BA3FB0213D908B1
:102750000B469B000B445B00D31ADBB23033DAB27A
:102760004A4B1A73FB7B484AA2FB0323DB08DBB20C
:102770003033DAB2454B9A73FA7B434BA3FB021317
:10278000D9080B469B000B445B00D31ADBB23033F5
:10279000DAB23E4BDA733B7C3B4AA2FB0323DB08F5
:1027A000DBB23033DAB2394B5A743A7C364BA3FB86
:1027B0000213D9080B469B000B445B00D31ADBB213
:1027C0003033DAB2314B9A7413223049334805F072
:1027D000B9FB00231A463249304805F0B3FB2348C1
:1027E00005F082FB03461A4620492C4805F0AAFB57
:1027F0002C4805F079FB03461A462A49274805F07C
:10280000A1FB264805F070FB03461946234801F05A
:1028100029FA244805F068FB03461946214801F0CF
:1028200021FA1E4805F060FB03461A4600211B48AA
:1028300005F060FA1C4B1B78012B04D01A4B1B7857
:10284000112B40F07C82194B1B684CF250329342A2
:1028500040F0548240F2DC53154A16490020FDF73F
:1028600043FD03461A4627E0BC8500089C0A002069
:102870002001002000010020140A0020980A0020F6
:1028800040040020200E0020CDCCCCCCE40200205F
:10289000D34D6210676666661F85EB51F00D002010
:1028A00078020020C4010020DE0D00205C0C002016
:1028B000540C0020440C0020BB4B1A70BA4B1B7800
:1028C000002B00F01182B94B1B78002B40F00C82DA
:1028D000B64B01221A70B64B1B78B64AA2FB0323F3
:1028E0005B09DBB23033DAB2B34B1A70B04B1B78F2
:1028F000B24AA2FB0323DB08DAB2B04BA3FB0213FC
:10290000D9080B469B000B445B00D31ADBB2303373
:10291000DAB2A94B5A70A64B1A78A84BA3FB021344
:10292000D9080B469B000B445B00D31ADBB2303353
:10293000DAB2A14B9A70A24805F0D6FA03461946BE
:102940009F4801F08FF99F4805F0CEFA03461946DB
:102950009C4801F087F9984805F0C6FA03461946E5
:10296000954801F07FF9984805F0BEFA03461946EC
:10297000954801F077F99549954801F0A5FE034681
:102980001A46944B1A70944805F0AEFA034619465D
:10299000914801F067F98D4805F0A6FA03461946FB
:1029A0008A4801F05FF9884805F09EFA0346194607
:1029B000854801F057F97E4B1B7819468448FFF78C
:1029C0001DFA0346854A1360844B1B685B0A844AE0
:1029D000A2FB0323DB09DBB23033DAB2814B1A707E
:1029E0007E4B1B68804AA2FB0323590E734BA3FB4B
:1029F0000123DA0813469B0013445B00CA1AD3B2C2
:102A00003033DAB2774B5A70744B1B68774AA2FBAB
:102A10000323990D694BA3FB0123DA0813469B009E
:102A200013445B00CA1AD3B23033DAB26D4B9A70DA
:102A30006A4B1B686E4AA2FB0323990C5F4BA3FBF6
:102A40000123DA0813469B0013445B00CA1AD3B271
:102A50003033DAB2634BDA70604B1B685B09654A4E
:102A6000A2FB0323D909554BA3FB0123DA08134624
:102A70009B0013445B00CA1AD3B23033DAB2594B0D
:102A80001A71564B1B685C4AA2FB0323590B4B4B34
:102A9000A3FB0123DA0813469B0013445B00CA1A08
:102AA000D3B23033DAB24F4B5A714C4B1B68534A96
:102AB000A2FB03239909414BA3FB0123DA08134628
:102AC0009B0013445B00CA1AD3B23033DAB2454BD1
:102AD0009A71424B1B68374AA2FB03235909374BB3
:102AE000A3FB0123DA0813469B0013445B00CA1AB8
:102AF000D3B23033DAB23B4BDA71384B1B682F4A12
:102B0000A2FB0323D9082D4BA3FB0123DA081346AC
:102B10009B0013445B00CA1AD3B23033DAB2314B94
:102B20001A722E4B1968254BA3FB0123DA081346B2
:102B30009B0013445B00CA1AD3B23033DAB2294B7C
:102B40005A722F4805F0D0F9034619462C4801F077
:102B500089F8244805F0C8F903461946214801F0D0
:102B600081F8194805F0C0F903461946164801F0E6
:102B700079F8802000F082FB224800F02FFCC02072
:102B800000F07CFB1F4800F029FC1F4805F0ACF961
:102B900003461A4600211C4805F0ACF81A221B49CE
:102BA000194805F077F933E0420C0020410C002071
:102BB000540C00201F85EB5154020020CDCCCCCC0E
:102BC0001402002028020020C40100202800002058
:102BD000440C0020430C002040020020580C002030
:102BE000834B040058020020893BE6556BCA5F6B9B
:102BF00083DE1B43C55A7C0A5917B7D1D34D6210E7
:102C00006402002000010020C80A00202C010020DE
:102C1000B349B44805F0C0F800224FF44871B148F8
:102C200000F0A4FDB04B1978B04B0122B048FEF77C
:102C300045F903461A46AF4B1A70AE4B1B78022B70
:102C400028D0022B37DC002B02D0012B11D032E030
:102C5000A94805F049F903461946A74801F002F8CA
:102C6000A64805F041F903461946A44800F0FAFFCA
:102C700021E0A34805F038F903461946A04800F0C2
:102C8000F1FF9E4805F030F9034619469B4800F0D5
:102C9000E9FF10E09B4805F027F9034619469948DB
:102CA00000F0E0FF954805F01FF9034619469348E8
:102CB00000F0D8FF00BF944805F016F90346194606
:102CC000914800F0CFFF914A1021884801F0E0FDC3
:102CD0002F218E4800F0C6FF884805F005F903460D
:102CE0001946864800F0BEFF894B1B78002B02D1A5
:102CF000884B00221A70884B00221A60864B1B6892
:102D00000133854A136001224FF44871754800F081
:102D10002DFD14E0814B1B78002B06D1C02000F064
:102D2000ADFA7F4800F05AFB09E07E4B1B78403B30
:102D3000DBB2184600F0A2FA7B4800F04FFB7B4B59
:102D40001B78002B1AD07A4B1B78012B16D17948AF
:102D500005F0CAF803461A460021764804F0CAFF77
:102D60001A227549734805F095F800224FF448710E
:102D7000704800F067FC6E4B00221A7001224FF47D
:102D800048716C4800F05EFC684B1B78092B7FF49F
:102D900070AB01F00DFD694805F0A6F80346194631
:102DA000664800F05FFF0421654800F05BFF534870
:102DB00005F09AF803461946504800F053FF4A4B75
:102DC00019785F4B01224A4801F064FF03461A4616
:102DD0005C4B1A705B4B1B78042B62D801A252F833
:102DE00023F000BFF92D00081B2E00083D2E00081F
:102DF0005F2E0008812E0008534805F075F8034641
:102E00001946514800F02EFF3C4805F06DF8034686
:102E100019463A4800F026FF43E0394805F064F8C7
:102E200003461946364800F01DFF344805F05CF8AB
:102E300003461946314800F015FF32E0314805F0ED
:102E400053F8034619462F4800F00CFF2B4805F0B5
:102E50004BF803461946294800F004FF21E03B489F
:102E600005F042F803461946384800F0FBFE2348B7
:102E700005F03AF803461946204800F0F3FE10E04A
:102E8000334805F031F803461946314800F0EAFEB0
:102E90001A4805F029F803461946184800F0E2FEE2
:102EA00000BF224B00221A70224805F01DF803468D
:102EB0001A4600211F4804F01DFF1A2225491D480B
:102EC00004F0E8FF00224FF448711A4800F0BAFB02
:102ED000C02000F0D3F9204800F080FAFFF7C9BA0B
:102EE00058020020C80A0020540C0020E00D0020E9
:102EF000440C0020710C0020FC020020C4010020C2
:102F0000340300209C030020E8030020B8030020C5
:102F1000420C0020410C00205C0C0020610C0020C1
:102F20003C0000204C0C0020780200206F0C002098
:102F3000700C00209C0A0020140100204002002098
:102F4000500C0020720C00201803002058030020B1
:102F50007403002050000020B000002080B400AFB7
:102F6000364B1B88364AA2FB03235B0B9AB2354BC8
:102F7000A3FB0213D9080B469B000B445B00D31A3A
:102F80009BB2DBB23033DAB22F4B1A702B4B1B885B
:102F90002E4AA2FB03239B099AB22A4BA3FB0213DE
:102FA000D9080B469B000B445B00D31A9BB2DBB2E3
:102FB0003033DAB2244B5A70204B1B88244AA2FBD0
:102FC00003235B099AB21F4BA3FB0213D9080B46DC
:102FD0009B000B445B00D31A9BB2DBB23033DAB2F6
:102FE000194B9A70154B1B88164AA2FB0323DB086A
:102FF0009AB2144BA3FB0213D9080B469B000B4457
:103000005B00D31A9BB2DBB23033DAB20E4BDA700C
:103010000A4B1A880B4BA3FB0213D9080B469B00E3
:103020000B445B00D31A9BB2DBB23033DAB2064BEF
:103030001A7100BFBD4680BC704700BF6C0C0020F9
:103040005917B7D1CDCCCCCCDC020020D34D6210C7
:103050001F85EB5180B584B000AF786039600023E4
:10306000FB6013E000BF0E4B1B889BB203F0800394
:10307000802BF8D1FB687A6813441B789BB2194601
:10308000074803F0C6FFFB680133FB60FA683B6842
:103090009A42E7DB00BF00BF1037BD4680BD00BFCE
:1030A0000038014080B485B000AF786039601B4BB8
:1030B000FB600023FB727B68194A9342A8BF13464A
:1030C0007B607B6823EAE3737B601EE07A68FB68C1
:1030D00092FBF3F3DAB2FB7A591CF97219463B689A
:1030E0000B443032D2B21A707B68FA6893FBF2F26A
:1030F000F96801FB02F29B1A7B60FB68094A82FBBC
:1031000003129210DB17D31AFB60FB68002BDDD192
:1031100000BF00BF1437BD4680BC704740420F005F
:103120007F9698006766666680B586B000AF01211D
:10313000082002F047FC0223BB751823FB754023CF
:10314000BB8207F1140319461A4802F0D3FD01218E
:10315000082002F037FC0223BB751C23FB7580237B
:10316000BB8207F114031946124802F0C3FD012186
:103170004FF4001002F044FC4FF48063FB814FF4E5
:1031800080433B824CF250337B604BF6FF737B8174
:1031900000233B810123BB813B1D1946064803F0F8
:1031A0003BF80121044803F017F900BF1837BD466A
:1031B00080BD00BF000C01400054004080B584B0C9
:1031C00000AF78600B46FB701346BB704FF47A7308
:1031D000FB600121786803F05CF94FF47A73FB60BF
:1031E00006E0FB685A1EFA60002B01D1FF233AE08B
:1031F0001F49786803F0A7FB0346002BF1D0FB784A
:1032000000221946786803F03FFA4FF47A73FB60A6
:1032100006E0FB685A1EFA60002B01D1FF2322E072
:103220001449786803F08FFB0346002BF1D0BB787C
:103230001946786803F00CFA4FF47A73FB6006E0E5
:10324000FB685A1EFA60002B01D1FF230BE00A49EC
:10325000786803F078FB0346002BF1D001217868F1
:1032600003F036F9002318461037BD4680BD00BF75
:1032700001000300800007008400070080B584B0CF
:1032800000AF0346FB71FB7923F00F03FB73FB795F
:103290001B01BB73FB7B23F00703DBB21A464E21F5
:1032A0001C48FFF78BFFFB7B43F00203DBB223F0EC
:1032B0000503DBB21A464E211648FFF77FFFFB7B62
:1032C00023F00703DBB21A464E211248FFF776FFC0
:1032D000BB7B23F00703DBB21A464E210D48FFF7F4
:1032E0006DFFBB7B43F00203DBB223F00503DBB2CF
:1032F0001A464E210748FFF761FFBB7B23F0070307
:10330000DBB21A464E210348FFF758FF00BF1037C3
:10331000BD4680BD0054004080B584B000AF034678
:10332000FB71FB7923F00F03FB73FB791B01BB736C
:1033300097F90F3023F007035BB243F004035BB24D
:10334000DBB21A464E212448FFF738FFFB7B43F0DF
:103350000603DBB223F00103DBB21A464E211E48FE
:10336000FFF72CFF97F90F3023F007035BB243F010
:1033700004035BB2DBB21A464E211748FFF71EFF6B
:1033800097F90E3023F007035BB243F004035BB2FE
:10339000DBB21A464E211048FFF710FFBB7B43F00B
:1033A0000603DBB223F00103DBB21A464E210A48C2
:1033B000FFF704FF97F90E3023F007035BB243F0E9
:1033C00004035BB2DBB21A464E210348FFF7F6FE58
:1033D00000BF1037BD4680BD0054004090B585B099
:1033E00000AF78600023FB7309E0FB7B7A6813442D
:1033F0001B781846FFF790FFFB7B0133FB73FC7BC8
:10340000786804F071FD03469C42EED300BF00BF14
:103410001437BD4690BD80B58AB000AFF860B96082
:103420007A6001F04BFD03467F4A13607F4B002218
:103430001A70002387F826307D4B00221A707D4BCE
:1034400000221A70002387F827301CE0784804F027
:103450004BFD03461A46764B134477491A460B46F2
:103460001B881380734804F03FFD03461A46714BD6
:10347000134471491A460B461B88138097F827306E
:10348000013387F8273097F82730062BDED9F96803
:10349000674804F081FCB968664804F07DFC0023AD
:1034A00087F827301CE0624804F01EFD03461A46E8
:1034B0005F4B134460491A460B461B8813805D48D6
:1034C00004F012FD03461A465A4B13445A491A4651
:1034D0000B461B88138097F82730013387F8273075
:1034E00097F82730062BDED9514804F0FDFC03463F
:1034F000DAB2524B1A704F4804F0F6FC0346DAB2C7
:103500004F4B1A707AE001F0D9FC0246464B1B681B
:10351000D31A7A689A4271D201F0D0FC0346424A2B
:103520001360424B1B780133DAB2404B1A7097F8A4
:103530002620424B1B78013B9A4229DA002387F868
:10354000273019E0394B1B781A4697F82730134477
:103550003A4A127893FBF2F101FB02F29A1A97F8B9
:10356000273033498A5C28333B4403F80C2C97F806
:103570002730013387F8273097F82730072BE1D918
:103580008020FFF77BFE07F11C031846FFF726FF9C
:1035900097F826202A4B1B78013B9A4229DA002310
:1035A00087F8273019E0214B1B781A4697F8273007
:1035B0001344234A127893FBF2F101FB02F29A1AA8
:1035C00097F827301B498A5C28333B4403F8182CB2
:1035D00097F82730013387F8273097F82730072BE3
:1035E000E1D9C020FFF74AFE07F110031846FFF7A4
:1035F000F5FE97F82630013387F8263097F8262015
:103600000E4B1B78013B9A42FFF67DAF97F82620C0
:103610000B4B1B78013B9A42FFF675AF00BF00BF12
:103620002837BD4680BD00BF240E0020280E002094
:103630002C0E0020A40E0020C0850008190F0020C9
:103640001A0F002080B588B000AFF860B96013464B
:10365000FB71FB79002B3FD101F030FC03463E4A61
:1036600013603E4B00221A703D4B00221A7000235B
:10367000FB770EE03A4804F037FC03461A46384B15
:10368000134438491A460B461B881380FB7F0133CD
:10369000FB77FB7F062BEDD9F968314804F07CFB02
:1036A0000023FB770EE02E4804F01EFC03461A466A
:1036B0002B4B13442B491A460B461B881380FB7F68
:1036C0000133FB77FB7F062BEDD9254804F00CFC7A
:1036D0000346DAB2244B1A70FB681B78002B37D0F4
:1036E00001F0ECFB02461C4B1B68D31ABA689A42E5
:1036F0002ED201F0E3FB0346174A1360174B1B78E9
:103700000133DAB2154B1A700023FB7715E0134B27
:103710001B781A46FB7F1344134A127893FBF2F18D
:1037200001FB02F29A1AFB7F0D498A5C20333B446D
:1037300003F80C2CFB7F0133FB77FB7F072BE6D9CB
:103740008020FFF79BFD07F114031846FFF746FEA4
:1037500000BF2037BD4680BD1C0F0020200F002079
:10376000240F0020C08500084F0F002080B588B0CE
:1037700000AFF860B9601346FB71FB79002B3FD1B5
:1037800001F09CFB03463E4A13603E4B00221A7038
:103790003D4B00221A700023FB770EE03A4804F0FC
:1037A000A3FB03461A46384B134438491A460B46C6
:1037B0001B881380FB7F0133FB77FB7F062BEDD942
:1037C000F968314804F0E8FA0023FB770EE02E4850
:1037D00004F08AFB03461A462B4B13442B491A4626
:1037E0000B461B881380FB7F0133FB77FB7F062B87
:1037F000EDD9254804F078FB0346DAB2244B1A7061
:10380000FB681B78002B37D001F058FB02461C4B9D
:103810001B68D31ABA689A422ED201F04FFB0346B6
:10382000174A1360174B1B780133DAB2154B1A7025
:103830000023FB7715E0134B1B781A46FB7F1344DC
:10384000134A127893FBF2F101FB02F29A1AFB7F02
:103850000D498A5C20333B4403F80C2CFB7F013379
:10386000FB77FB7F072BE6D9C020FFF707FD07F1A9
:1038700014031846FFF7B2FD00BF2037BD4680BDD8
:10388000500F0020540F0020580F0020C085000862
:10389000830F002080B582B000AFFFF745FC002306
:1038A000FB712DE0FB79204AD35C1B01DBB21A4689
:1038B0004E211E48FFF782FC0A2001F0EBFAFB794B
:1038C000194AD35C1B015BB243F002035BB2DBB26B
:1038D0001A464E211548FFF771FC0A2001F0DAFA6A
:1038E000FB79114AD35C1B01DBB21A464E210F480B
:1038F000FFF764FC0A2001F0CDFAFB790133FB717C
:10390000FB790B2BCED98020FFF7B8FC0848FFF7D6
:1039100065FDC020FFF7B2FC0548FFF75FFD00BF63
:103920000837BD4680BD00BF0400002000540040A1
:10393000C485000880B582B000AF0423FB71194B29
:103940001B6819491846FFF7ADFB184A184B1B882E
:103950009BB21380144B2E225A71134B1B78302BC1
:103960000CD1144B082219460F4804F047F9FB7993
:10397000013BFB71FB79002BEFD100E000BF0A484F
:1039800004F0B2FA0346DAB26FF037039B1ADBB2E7
:103990001846FFF773FC0448FFF720FD00BF083707
:1039A000BD4680BDB80A0020BC0A0020C20A002023
:1039B000C10A0020BD0A002080B485B000AF786045
:1039C0000023FB60344BFB607B689B79002B4FD05E
:1039D000314B1A687B681B68DB432F4913400B602F
:1039E0002D4B5A687B681B68DB432B4913404B60A7
:1039F0007B681B791A46FB681344FB60FB681968F7
:103A00007B681A68FB680A431A60234B9A687B68D4
:103A10001B68DB43204913408B601F4BDA687B68CF
:103A20001B68DB431C491340CB607B685B79102B20
:103A30000ED1194B9A687B681B68174913438B603A
:103A4000154BDA687B681B6813491343CB601DE094
:103A5000114BFB607B685B791A46FB681344FB6083
:103A6000FB6819687B681A68FB680A431A600DE0F6
:103A70007B681B791A46FB681344FB60FB68196876
:103A80007B681B68DA43FB680A401A6000BF143782
:103A9000BD4680BC704700BF0004014080B485B0C3
:103AA00000AF78600023FB73084B5A697B681340B2
:103AB000002B02D00123FB7301E00023FB73FB7B8F
:103AC00018461437BD4680BC704700BF0004014053
:103AD00080B483B000AF7860034A7B68536100BF55
:103AE0000C37BD4680BC70470004014080B582B0F1
:103AF00000AF0121082001F065FF0223BB714823BC
:103B0000FB710123BB803B1D1946034802F0F2F80C
:103B100000BF0837BD4680BD000C014080B500AF36
:103B20000120FFF7BBFF0346012B34D11B4B1B7851
:103B3000022B17D11A4B0022DA701A4B08225A7145
:103B4000174801F0B7FB184B00221A80134B0122D3
:103B50001A7000F059FA01224FF48051134802F014
:103B6000FEF915E00E4B0022DA700E4B0C225A7152
:103B70000B4801F09FFB0C4B1A880D4B1A80074B2A
:103B800002221A7000224FF48051084802F0E7F92F
:103B90000120FFF79DFF00BF80BD00BF690C002022
:103BA000800C0020780C0020660C002000080140EA
:103BB0006A0C002080B586B000AF01214FF40030C0
:103BC00001F01EFF0223BB751823FB750423BB8283
:103BD00007F114031946214802F08CF84823FB75BD
:103BE0000823BB8207F1140319461C4802F082F82F
:103BF00001214FF4003001F0E5FE4FF416537B60D5
:103C000000233B820C23FB810023BB8100237B81AB
:103C100000233B813B1D1946114802F0CBFF0121D7
:103C20000F4803F0DDF84FF4E06001F031FB26238C
:103C30003B700123FB7000237B700023BB703B466D
:103C4000184601F037FB012240F22551044803F0E9
:103C5000E6F800BF1837BD4680BD00BF0008014030
:103C60000044004080B584B000AF78603960002324
:103C7000FB6013E000BF80210D4803F00BFB0346FF
:103C8000002BF8D0FB687A6813441B789BB2194666
:103C9000074803F0BEF9FB680133FB60FA683B6834
:103CA0009A42E7DB00BF00BF1037BD4680BD00BFB2
:103CB0000044004080B586B000AF0121042001F02F
:103CC00081FE0223BB751823FB754FF40073BB8282
:103CD00007F114031946214802F00CF84823FB753C
:103CE0004FF48063BB8207F1140319461B4802F0AE
:103CF00001F801214FF4804001F064FE4FF41653A7
:103D00007B6000233B820C23FB810023BB810023CB
:103D10007B8100233B813B1D1946114802F04AFF7D
:103D200001210F4803F05CF84FF4E06001F0B0FAB5
:103D300025233B700123FB7000237B700023BB70A5
:103D40003B46184601F0B6FA012240F225510448DC
:103D500003F065F800BF1837BD4680BD000801407C
:103D60000038014080B582B000AF0121042001F08D
:103D700029FE0223BB711023FB714FF48053BB80DB
:103D80003B1D1946064801F0B5FF00224FF4805153
:103D9000034802F0E4F800BF0837BD4680BD00BF0D
:103DA0000008014080B483B000AF78600B46FB7020
:103DB000FB78002B08D07B681B889BB243F0010383
:103DC0009AB27B681A8007E07B681B889BB223F05D
:103DD00001039AB27B681A8000BF0C37BD4680BCD5
:103DE000704780B485B000AF786039600023FB81F4
:103DF0007B681B88FB817B682E4A934213D07B68CB
:103E00002D4A93420FD07B68B3F1804F0BD07B6873
:103E10002A4A934207D07B68294A934203D07B68A1
:103E2000284A934208D1FB8923F07003FB813B6849
:103E30005A88FB891343FB817B68234A93420CD049
:103E40007B68224A934208D0FB8923F44073FB81AC
:103E50003B68DA88FB891343FB817B68FA891A8007
:103E60003B689A887B689A853B681A887B681A85C4
:103E70007B68104A93420FD07B680F4A93420BD065
:103E80007B68134A934207D07B68124A934203D05F
:103E90007B68114A934204D13B681B7A9AB27B68D3
:103EA0001A867B6801229A8200BF1437BD4680BC07
:103EB000704700BF002C0140003401400004004066
:103EC00000080040000C00400010004000140040BA
:103ED00000400140004401400048014080B483B0EC
:103EE00000AF78600B467B8013467B707B78002B9D
:103EF00008D07B689B899AB27B8813439AB27B680F
:103F00009A8109E07B689B899AB27B88DB439BB2EC
:103F100013409AB27B689A8100BF0C37BD4680BCC3
:103F2000704780B485B000AF78600B467B8000237B
:103F3000FB730023BB8100237B817B681B8A9AB2C1
:103F40007B881340BB817B689B899AB27B88134036
:103F50007B81BB89002B05D07B89002B02D00123FC
:103F6000FB7301E00023FB73FB7B18461437BD464F
:103F700080BC704780B483B000AF78600B467B8014
:103F80007B88DB439AB27B681A8200BF0C37BD4640
:103F900080BC704780B584B000AF01214FF4006051
:103FA00001F010FD41F61F43BB800023FB804FF45E
:103FB000FA733B8100237B8100233B733B1D194631
:103FC0000F48FFF70EFF0F4B19221A700D4B0022FE
:103FD0005A700C4B01229A700A4B0022DA70094881
:103FE00001F068F9002201210548FFF777FF002161
:103FF0000348FFF7D7FE00BF1037BD4680BD00BFA6
:10400000002C0140740C002080B500AF012201217A
:104010000548FFF763FF01210348FFF7C3FE19209E
:10402000FCF7B2F800BF80BD002C014080B500AFA6
:10403000002201210548FFF751FF00210348FFF747
:10404000B1FE1920FCF7A0F800BF80BD002C014094
:1040500080B500AF01218748FFF763FF0346002BBF
:1040600000F005810121844801F013FF0346002B75
:104070002DD1824B1B78012B06D1814B00221A7067
:10408000804B00221A80EAE07E4B1B8801339AB2F3
:104090007C4B1A807B4B1B883C2B40F0E0807A4B9A
:1040A0001B78002B40F0DB80774B01221A70774B96
:1040B00001221A70764B00221A70764B00221A7079
:1040C000754B00221A70754B00221A80C7E06B4BAB
:1040D0001B78002B31D16A4B01221A70694B0022E8
:1040E0001A806F4B00221A80674B1B78013B072B0D
:1040F00000F2B580664B1B780133DAB2644B1A705C
:10410000634B1B780F2B02D9614B00221A70604B56
:104110001B78092B08D85E4B1B785E4A1278303327
:10412000D9B2604B99549AE0594B1B78594A12788E
:104130003733D9B25B4B995491E0594B1B8801330B
:104140009AB2574B1A80564B1B88B3F5167F05D190
:104150004D4B00221A70524B00221A804F4B1B8885
:1041600001339AB24D4B1A804C4B1B880A2B08D155
:104170004A4B00221A80484B1B78DB43DAB2464B8D
:104180001A70404B1B8801339AB23E4B1A803D4B4C
:104190001B88642B62D13C4B1B78013B072B5ED8FC
:1041A00001A252F823F000BFC9410008DD41000818
:1041B000F141000805420008194200082D4200089C
:1041C00041420008554200082F4B02221A70304B22
:1041D00000221A702F4B01221A7040E02A4B032252
:1041E0001A702B4B00221A702A4B02221A7036E0EA
:1041F000254B04221A70264B00221A70254B0322ED
:104200001A702CE0204B05221A70214B00221A70E4
:10421000204B04221A7022E01B4B06221A701C4B02
:1042200000221A701B4B05221A7018E0164B072249
:104230001A70174B00221A70164B06221A700EE0E5
:10424000114B08221A70124B00221A70114B0722D0
:104250001A7004E00C4B09221A7000E000BF084BF2
:104260001A78064B1A7001210248FFF783FE00BF3F
:1042700080BD00BF002C0140000C0140680C0020F4
:10428000690C0020660C00206F0C0020700C0020D0
:104290004B0C00204C0C0020610C0020640C002012
:1042A000620C00203C00002080B586B000AF0121E8
:1042B000082001F087FB01214FF4804001F0A0FBB2
:1042C0000323BB751823FB754FF42043BB8207F112
:1042D00014031946244801F00DFD0323BB75102378
:1042E000FB754FF48053BB8207F1140319461E4837
:1042F00001F000FD4823FB754FF48043BB8207F1BA
:1043000014031946184801F0F5FC00233B804FF4D4
:1043100082737B800023BB800023FB8000233B81D2
:1043200000237B813823BB818023FB8107233B82D1
:104330003B4619460D4803F089F800210B4803F06D
:10434000D1FA01224FF48051074801F008FE012103
:10435000064803F07CFA0121044803F0ACF900BFE1
:104360001837BD4680BD00BF000C0140003800403A
:1043700080B582B000AF78607B68002B04D11C212F
:104380006848FFF76FFCC9E07B681B0EDAB2664B2A
:104390001A707B681B0CDAB2644B1A707B681B0ABC
:1043A000DAB2634B1A707B68DAB2624B1A705E4BFA
:1043B0001B781B09DBB23033DAB25F4B1A705A4BF1
:1043C0001B7803F00F03DBB23033DAB25A4B5A706A
:1043D000564B1B78594AA2FB03235B09DBB23033EF
:1043E000DAB2574B1A70514B1B78564AA2FB032383
:1043F000DB08DAB2534BA3FB0213D9080B469B0030
:104400000B445B00D31ADBB23033DAB24C4B5A7038
:10441000464B1A784B4BA3FB0213D9080B469B0063
:104420000B445B00D31ADBB23033DAB2444B9A70E0
:104430003F4B1B78414AA2FB03235B09DBB23033BD
:10444000DAB2414B1A703A4B1B783E4AA2FB032367
:10445000DB08DAB23B4BA3FB0213D9080B469B00E7
:104460000B445B00D31ADBB23033DAB2364B5A70EE
:104470002F4B1A78334BA3FB0213D9080B469B0032
:104480000B445B00D31ADBB23033DAB22E4B9A7096
:10449000284B1B781B09DBB23033DAB22B4B1A7076
:1044A000244B1B7803F00F03DBB23033DAB2274B17
:1044B0005A70274803F018FD034619462448FFF7B1
:1044C000D1FB02211C48FFF7CDFB02212148FFF759
:1044D000C9FB214803F008FD034619461E48FFF7B3
:1044E000C1FB03211648FFF7BDFB002319461B48FB
:1044F000FFF7B8FB03211448FFF7B4FB022115486E
:10450000FFF7B0FB0A211648FFF7ACFB02210F486A
:10451000FFF7A8FB02210F48FFF7A4FB00BF0837F5
:10452000BD4680BD94020020840C0020850C002034
:10453000860C0020870C0020840200201F85EB5190
:1045400088020020CDCCCCCC8C0200209002002030
:10455000B002002080020020C00200207C02002067
:10456000D002002080B483B000AF78607B681B0E5F
:10457000DAB24B4B1A707B681B0CDAB2494B1A70DB
:104580007B681B0ADAB2484B1A707B68DAB2474B79
:104590001A70434B1B781B09DBB23033DAB2444B41
:1045A0001A703F4B1B7803F00F03DBB23033DAB2E3
:1045B0003F4B5A703B4B1B783E4AA2FB03235B09DF
:1045C000DBB23033DAB23C4B1A70364B1B783B4AC5
:1045D000A2FB0323DB08DAB2384BA3FB0213D90892
:1045E0000B469B000B445B00D31ADBB23033DAB2CC
:1045F000314B5A702B4B1A78304BA3FB0213D9085E
:104600000B469B000B445B00D31ADBB23033DAB2AB
:10461000294B9A70244B1B78264AA2FB03235B0983
:10462000DBB23033DAB2264B1A701F4B1B78234AA9
:10463000A2FB0323DB08DAB2204BA3FB0213D90849
:104640000B469B000B445B00D31ADBB23033DAB26B
:104650001B4B5A70144B1A78184BA3FB0213D90842
:104660000B469B000B445B00D31ADBB23033DAB24B
:10467000134B9A700D4B1B781B09DBB23033DAB247
:10468000104B1A70094B1B7803F00F03DBB2303369
:10469000DAB20C4B5A7000BF0C37BD4680BC704775
:1046A000840C0020850C0020860C0020870C002044
:1046B000840200201F85EB5188020020CDCCCCCC99
:1046C0008C0200209002002080B485B000AF78609A
:1046D00039600023FB730023BB7300237B7300232B
:1046E0003B730023BB735AE0BB7B7A6813441B788F
:1046F0001B097B737B7B092B03D87B7B30337B735C
:1047000008E07B7B092B05D97B7B0F2B02D87B7BB9
:1047100037337B73BB7B7A6813441B7803F00F033A
:104720003B733B7B092B03D83B7B30333B7308E067
:104730003B7B092B05D93B7B0F2B02D83B7B3733C7
:104740003B73FB7B3A68134430221A70FB7B0133C6
:10475000FB73FB7B3A68134478221A70FB7B0133AE
:10476000FB73FB7B3A6813447A7B1A70FB7B013343
:10477000FB73FB7B3A6813443A7B1A70FB7B013373
:10478000FB73FB7B112B07D8FB7B3A681344202279
:104790001A70FB7B0133FB73BB7B0133BB73BB7BA9
:1047A000032BA1D9012318461437BD4680BC70479E
:1047B00080B483B000AF0023FB710023BB710023E2
:1047C0007B7100237B7155E0FB792F4AD35C2F2B43
:1047D0000AD9FB792C4AD35C392B05D8FB792A4AB4
:1047E000D35C303BBB710EE0FB79274AD35C402B96
:1047F00009D9FB79244AD35C462B04D8FB79224A99
:10480000D35C373BBB717B79BA791201D1B21F4AB5
:10481000D154FB790133FB71FB791B4AD35C2F2BFD
:104820000AD9FB79184AD35C392B05D8FB79164A8B
:10483000D35C303BBB710EE0FB79134AD35C402B59
:1048400009D9FB79104AD35C462B04D8FB790E4A70
:10485000D35C373BBB717B790C4AD15C7B79BA79ED
:104860000A43D1B2094AD154FB790133FB717B79F8
:1048700001337B717B79032BA6D900BF00BF0C37B6
:10488000BD4680BC704700BF3C000020500C00209B
:1048900080B487B000AFF8600B467A60FB720023EB
:1048A000FB750023BB7500237B7500233B7500233C
:1048B000BB7547E0BB7DFA6813441B781B097B7509
:1048C0007B7D092B03D87B7D30337B7508E07B7DB6
:1048D000092B05D97B7D0F2B02D87B7D37337B7568
:1048E000BB7DFA6813441B7803F00F033B753B7DD7
:1048F000092B03D83B7D30333B7508E03B7D092B0A
:1049000005D93B7D0F2B02D83B7D37333B75FB7DB3
:104910007A6813447A7D1A70FB7D0133FB75FB7D49
:104920007A6813443A7D1A70FB7D0133FB75FB7D79
:104930007A68134420221A70FB7D0133FB75BB7D1E
:104940000133BB75BA7DFB7A9A42B3D30123184673
:104950001C37BD4680BC704780B58AB002AFAE4AF6
:1049600007F1140392E80300186004331980002350
:10497000BB77AA4A3B461268114619800233120CD3
:104980001A700023FB7710237B770023FB7774E1F9
:10499000A34B1978FB7F1F2B05D8FB7F01339B00AE
:1049A000013B1A4604E0FB7F173B1B01013B1A4603
:1049B00007F11403009301239A48FCF795F9034685
:1049C0003B773B7F002B10D1974803F08DFA0346CD
:1049D00019469548FFF746F9944803F085FA0346CF
:1049E00019469248FFF73EF94CE1FB7F102B2CD182
:1049F0003B1D10220021184603F07CF9FB7F1F2B82
:104A000003D8FB7F9B00DBB206E0FB7F173BDBB2EA
:104A10001B01DBB2043BDBB23A1D11461846FCF722
:104A200015FA0346002B10D1814803F05DFA0346C6
:104A300019467F48FFF716F97C4803F055FA0346FC
:104A400019467A48FFF70EF91CE1FB7F002B02D0D4
:104A5000FB7F102B30D13B1D10220021184603F0A4
:104A600049F9FB7F1F2B07D8FB7F0133DBB29B008B
:104A7000DBB2033BDBB206E0FB7F173BDBB21B0183
:104A8000DBB2033BDBB23A1D11461846FCF7DEF9F8
:104A90000346002B68D1664803F026FA0346194600
:104AA0006348FFF7DFF8614803F01EFA0346194632
:104AB0005E48FFF7D7F8E5E03B1D102200211846BD
:104AC00003F018F9FB7F1F2B03D8FB7F9B00DBB2A1
:104AD00006E0FB7F173BDBB21B01DBB2043BDBB222
:104AE0003A1D11461846FCF7B1F90346002B10D1C8
:104AF0004F4803F0F9F9034619464D48FFF7B2F85D
:104B00004A4803F0F1F9034619464848FFF7AAF866
:104B1000B8E0FB7F1F2B07D8FB7F0133DBB29B0084
:104B2000DBB2033BDBB206E0FB7F173BDBB21B01D2
:104B3000DBB2033BDBB23A1D11461846FCF786F99F
:104B40000346002B10D13A4803F0CEF9034619462C
:104B50003748FFF787F8354803F0C6F9034619468A
:104B60003248FFF77FF88DE03B1D102200211846E8
:104B700003F0C0F8FB7F1F2B07D8FB7F0133DBB2AC
:104B80009B00DBB2023BDBB206E0FB7F173BDBB2F4
:104B90001B01DBB2023BDBB23A1D11461846FCF7A3
:104BA00055F90346002B10D1214803F09DF9034627
:104BB00019461F48FFF756F81C4803F095F90346BD
:104BC00019461A48FFF74EF85CE03B1D07F1140246
:104BD00092E803001860043319803B1D06331A461F
:104BE0003B4619889B781180937069237B733B1D2A
:104BF0000A331A4607F11403186810609B889380E3
:104C0000FB7F1F2B16D8FB7F0133DBB29B00DBB28F
:104C1000013BDBB215E000BFAC850008B48500089D
:104C2000540C0020440C002090040020C4010020FB
:104C3000B4040020FB7F173BDBB21B01DBB2013B5E
:104C4000DBB23A1D11461846FCF700F90346002B6B
:104C500010D10E4803F048F9034619460B48FFF7F8
:104C600001F80B4803F040F9034619460848FEF7DF
:104C7000F9FF07E0FB7F0133FB77FA7F7B7F9A42E6
:104C8000FFF486AE2037BD4680BD00BFD0040020B3
:104C9000C401002080B592B002AFF8607B600B4683
:104CA000FB721346BB72514A07F1340392E80300CA
:104CB000186004331980002387F83E304C4A07F10E
:104CC00020031268114619800233120C1A70102347
:104CD00087F83D30002387F83F30F97A07F1340335
:104CE000009301230022F868FBF7FEFF0346002B28
:104CF00005D1012387F83C3097F83C3072E007F18A
:104D0000100319460120FCF765F8034687F83C308C
:104D100007F1100319460120FCF75CF80346002B4D
:104D200005D1022387F83C3097F83C305AE0002345
:104D300087F83F300FE097F83F307A681A4497F8C9
:104D40003F30127840333B4403F8302C97F83F3023
:104D5000013387F83F3097F83F30032BEBD907F149
:104D6000100319460120FCF771F80346002B05D10A
:104D7000032387F83C3097F83C3033E007F12403F5
:104D800007F1340292E8030018600433198007F138
:104D9000240306331A4607F1200319889B781180F3
:104DA0009370692387F82D3007F124030A331A46DC
:104DB00007F13403186810609B88938007F124037F
:104DC00019460320FCF742F80346002B05D10423C3
:104DD00087F83C3097F83C3004E0002387F83C30FB
:104DE00097F83C3018464037BD4680BDAC8500087A
:104DF000B4850008B0B500AF104B03F50073104A3E
:104E00001360DFF8CCD00F4D0F4C05E02A46151D7E
:104E100023461C1D12681A600C4B9C42F6D30C4CA6
:104E200003E023461C1D00221A600A4B9C42F8D363
:104E300000F030F9FDF7C4F800BFB0BD840F0020CA
:104E400084110020DC8500080000002050090020AB
:104E5000500900201C12002080B400AFFEE780B48F
:104E600000AFFEE780B400AF084B1B68002B04D0F6
:104E7000064B1B68013B054A1360054B1B68013359
:104E8000034A136000BFBD4680BC7047F80900208C
:104E90008811002080B483B000AF7860064A7B6838
:104EA000136000BF044B1B68002BFBD100BF00BF89
:104EB0000C37BD4680BC7047F809002080B400AFB5
:104EC000024B1B681846BD4680BC70478811002005
:104ED0008411002080B485B000AF78600023FB739C
:104EE000104B1A68104B1B689A4215D00D4B1B686B
:104EF0005A1C0C490A600D4AD25C7B681A70094B37
:104F00001B685A4203F03F0302F03F0258BF53426E
:104F1000044A13600123FB73FB7B18461437BD461C
:104F200080BC70471412002018120020D4110020F9
:104F300080B500AF2021244802F0ACF90346012BD4
:104F40003FD1224B1B78002B1ED040F225511E482A
:104F500002F025FA1C4802F06DF8034618461C4B77
:104F60001B785A1CD1B21A4A11701A46C1B2194B99
:104F70009954174B1B78472B23D9144B00221A70D6
:104F8000134B00221A701CE040F225510E4802F02B
:104F900006FA0D4802F04EF8034618460E4B1B6801
:104FA0005A1C0D490A60C1B20C4AD1540A4B1B6805
:104FB0005A4203F03F0302F03F0258BF5342064AF1
:104FC000136000BF80BD00BF00380140690B0020A6
:104FD0006A0B00206C0B002018120020D411002056
:104FE00080B500AF2021124802F054F90346012B8E
:104FF0001CD140F225510E4802F0D1F90C4802F0C4
:1050000019F8034618460B4B1B685A1C09490A60DD
:10501000C1B2094AD154074B1B685A4203F03F03FF
:1050200002F03F0258BF5342024A136000BF80BDE6
:1050300000440040D01100208C11002080B485B0C5
:1050400000AF78600023FB730F4B1A680F4B1B688F
:105050009A4212D00C4B1B680D4AD25C7B681A70C6
:10506000094B1B685A4203F03F0302F03F0258BF4E
:105070005342054A13600123FB73FB7B1846143728
:10508000BD4680BC704700BFCC110020D01100206D
:105090008C11002080B500AF00F074F800BF80BD17
:1050A00080B485B000AF0023FB600023BB60002309
:1050B0007B602F4B5B6803F00C03FB60FB68082BE5
:1050C00011D0FB68082B3AD8FB68002B03D0FB6893
:1050D000042B04D033E0274B274A1A6033E0254BDA
:1050E000254A1A602FE0224B5B6803F47013BB6003
:1050F0001F4B5B6803F480337B60BB689B0C0233FF
:10510000BB607B68002B06D1BB681C4A02FB03F323
:10511000184A136017E0164B5B6803F40033002B4A
:1051200006D0BB68154A02FB03F3124A13600AE07B
:10513000BB68114A02FB03F30E4A136003E00D4BF8
:105140000D4A1A6000BF0A4B5B681B0903F00F038E
:105150000B4AD35CDBB2FB60064B1A68FB6822FA91
:1051600003F3044A136000BF1437BD4680BC704788
:1051700000100240F804002000127A0000093D00EF
:10518000FC04002080B500AF00F002F800BF80BD35
:1051900080B483B000AF00237B6000233B603A4BB8
:1051A0001B68394A43F480331360374B1B6803F4A0
:1051B00000333B607B6801337B603B68002B03D18D
:1051C0007B68B3F5A06FF0D12F4B1B6803F400335D
:1051D000002B02D001233B6001E000233B603B68D1
:1051E000012B4BD1294B1B68284A43F01003136055
:1051F000264B1B68254A23F003031360234B1B68CF
:10520000224A43F0020313601F4B1F4A5B6853603E
:105210001D4B1D4A5B6853601B4B5B681A4A43F485
:1052200080635360184B5B68174A23F47C13536008
:10523000154B5B68144A43F4E8135360124B1B6828
:10524000114A43F08073136000BF0F4B1B6803F0DB
:105250000073002BF9D00C4B5B680B4A23F003035F
:105260005360094B5B68084A43F00203536000BF78
:10527000054B5B6803F00C03082BF9D100BF0C371A
:10528000BD4680BC704700BF0010024000200240B5
:1052900080B483B000AF7860054A7B6843F0BF6399
:1052A00043F40033D36000BF0C37BD4680BC704769
:1052B00000ED00E080B487B000AF786000237B6130
:1052C00000233B610F23FB607B68DB78002B3AD027
:1052D000274BDB68DB431B0A03F007037B617B6919
:1052E000C3F104033B61FA687B6922FA03F3FB60B4
:1052F0007B685B781A463B6902FA03F37B617B6843
:105300009B781A46FB6813407A6913437B617B697B
:105310001B017B61174A7B681B787969C9B213440A
:105320000A4683F800237B681B7803F01F031149AA
:105330007A6812785209D2B21046012202FA03F3B7
:1053400041F820300FE07B681B7803F01F03094908
:105350007A6812785209D2B2104601229A4000F1BE
:10536000200341F8232000BF1C37BD4680BC704796
:1053700000ED00E000E100E080B483B000AF7860B1
:1053800039603B6823F0604323F07F0304497A6867
:1053900013438B6000BF0C37BD4680BC704700BF15
:1053A00000ED00E080B483B000AF03460A46FB7115
:1053B0001346BB71BB79002B06D0094B1A69FB79E8
:1053C000074913430B6106E0054B1A69FB79DB4380
:1053D000034913400B6100BF0C37BD4680BC7047CA
:1053E00000ED00E080B483B000AF78607B68042BF0
:1053F00006D1094B1B68084A43F00403136005E01B
:10540000054B1B68044A23F00403136000BF0C37EC
:10541000BD4680BC704700BF10E000E080B400AF24
:10542000134B1B68124A43F001031360104B5A6878
:105430000F49104B13404B600D4B1B680C4A23F077
:10544000847323F480331360094B1B68084A23F4E8
:1054500080231360064B5B68054A23F4FE03536008
:10546000034B4FF41F029A6000BFBD4680BC7047DB
:10547000001002400000FFF880B483B000AF7860F5
:10548000134B1B68124A23F480331360104B1B68C4
:105490000F4A23F4802313607B68B3F5803F04D068
:1054A0007B68B3F5802F07D00DE0094B1B68084AD5
:1054B00043F48033136006E0054B1B68044A43F451
:1054C000A023136000BF00BF0C37BD4680BC7047EF
:1054D0000010024080B582B000AF00233B60002383
:1054E000FB710023BB71312000F014FB0346BB713C
:1054F0003B6801333B603B68B3F5A06F02D0BB79DA
:10550000002BF0D0312000F005FB0346002B02D029
:105510000123FB7101E00023FB71FB79184608377A
:10552000BD4680BD80B485B000AF0346FB7100234B
:10553000FB600A4B1B68FB60FB6823F0F803FB6011
:10554000FB79DB00FA681343FB60044AFB681360D5
:1055500000BF1437BD4680BC704700BF001002403A
:1055600080B483B000AF0346FB71044AFB7913603B
:1055700000BF0C37BD4680BC704700BF00004242F0
:1055800080B485B000AF786039600023FB600A4BBF
:105590005B68FB60FB6823F47C13FB607A683B6804
:1055A0001343FA681343FB60034AFB68536000BF70
:1055B0001437BD4680BC70470010024080B483B0F1
:1055C00000AF0346FB71044AFB79136000BF0C3740
:1055D000BD4680BC704700BF6000424280B485B0C9
:1055E00000AF78600023FB60094B5B68FB60FB68E1
:1055F00023F00303FB60FA687B681343FB60044AF3
:10560000FB68536000BF1437BD4680BC704700BFC5
:105610000010024080B400AF044B5B68DBB203F0C3
:105620000C03DBB21846BD4680BC70470010024038
:1056300080B485B000AF78600023FB60094B5B68E5
:10564000FB60FB6823F0F003FB60FA687B681343A0
:10565000FB60044AFB68536000BF1437BD4680BC42
:10566000704700BF0010024080B485B000AF786082
:105670000023FB60094B5B68FB60FB6823F4E0637D
:10568000FB60FA687B681343FB60044AFB68536065
:1056900000BF1437BD4680BC704700BF00100240F9
:1056A00080B485B000AF78600023FB60094B5B6875
:1056B000FB60FB6823F46053FB607B68DB00FA68E7
:1056C0001343FB60034AFB68536000BF1437BD46B9
:1056D00080BC70470010024080B483B000AF034626
:1056E0000A46FB711346BB71BB79002B08D00C4BEB
:1056F0001B78DAB20A49FB791343DBB20B7009E07D
:10570000074B1B78DAB2FB79DB43DBB20449134069
:10571000DBB20B7000BF0C37BD4680BC704700BFCA
:105720000910024080B483B000AF7860034A7B6800
:10573000136000BF0C37BD4680BC7047D8004242A2
:1057400080B485B000AF78600023FB60094B5B68D4
:10575000FB60FB6823F44043FB60FA687B681343FB
:10576000FB60044AFB68536000BF1437BD4680BC31
:10577000704700BF0010024080B483B000AF034602
:10578000FB710C4B00221A700A4B00221A70FB7935
:10579000012B02D0042B04D007E0064B01221A7023
:1057A00003E0044B05221A7000BF00BF0C37BD4652
:1057B00080BC70472010024080B483B000AF034625
:1057C000FB71044AFB79136000BF0C37BD4680BCF7
:1057D000704700BF8004424280B483B000AF78605D
:1057E000054B1A6A04497B6813430B6200BF0C37F0
:1057F000BD4680BC704700BF0010024080B483B03B
:1058000000AF0346FB71044AFB79136000BF0C37FD
:10581000BD4680BC704700BF3C04424280B487B0A4
:1058200000AF786000237B6100233B610023FB60B5
:105830000023BB604F4B5B6803F00C037B617B690B
:10584000082B11D07B69082B3AD87B69002B03D039
:105850007B69042B04D033E07B68474A1A6033E04D
:105860007B68454A1A602FE0424B5B6803F4701373
:105870003B61404B5B6803F48033FB603B699B0CEE
:1058800002333B61FB68002B06D13B693B4A03FBBB
:1058900002F27B681A6017E0364B5B6803F4003352
:1058A000002B06D03B69354A03FB02F27B681A6085
:1058B0000AE03B69304A03FB02F27B681A6003E0AE
:1058C0007B682D4A1A6000BF2A4B5B6803F0F00327
:1058D0007B617B691B097B61294A7B6913441B78C7
:1058E000DBB2BB607B681A68BB68DA407B685A60D1
:1058F000204B5B6803F4E0637B617B691B0A7B617F
:105900001F4A7B6913441B78DBB2BB607B685A6813
:10591000BB68DA407B689A60164B5B6803F460539F
:105920007B617B69DB0A7B61154A7B6913441B78C9
:10593000DBB2BB607B685A68BB68DA407B68DA60C0
:105940000C4B5B6803F440437B617B699B0B7B6181
:105950000C4A7B6913441B78DBB2BB607B68DA6856
:10596000BB68B2FBF3F27B681A6100BF1C37BD460F
:1059700080BC70470010024000127A0000093D0010
:105980000C0500201C05002080B483B000AF7860B7
:105990000B46FB70FB78002B06D0094B5A6908496F
:1059A0007B6813434B6106E0054B5A697B68DB4318
:1059B000034913404B6100BF0C37BD4680BC7047A4
:1059C0000010024080B483B000AF78600B46FB70DB
:1059D000FB78002B06D0094B9A6908497B68134372
:1059E0008B6106E0054B9A697B68DB4303491340F2
:1059F0008B6100BF0C37BD4680BC70470010024071
:105A000080B483B000AF78600B46FB70FB78002B4E
:105A100006D0094BDA6908497B681343CB6106E07D
:105A2000054BDA697B68DB4303491340CB6100BF58
:105A30000C37BD4680BC70470010024080B483B074
:105A400000AF78600B46FB70FB78002B06D0094B4B
:105A5000DA6808497B681343CB6006E0054BDA68D7
:105A60007B68DB4303491340CB6000BF0C37BD4666
:105A700080BC70470010024080B483B000AF7860F3
:105A80000B46FB70FB78002B06D0094B1A690849BE
:105A90007B6813430B6106E0054B1A697B68DB43A7
:105AA000034913400B6100BF0C37BD4680BC7047F3
:105AB0000010024080B483B000AF0346FB71044A7B
:105AC000FB79136000BF0C37BD4680BC704700BF38
:105AD0004004424280B483B000AF0346FB71044AE5
